S01100006572696B61336170702E7372656393
S3150800000000000220D5060008B906000825070008E2
S315080000102507000825070008250700080000000036
S31508000020000000000000000000000000250700088E
S31508000030250700080000000091060008B908000816
S3150800004025070008250700082507000825070008D2
S3150800005025070008250700082507000825070008C2
S3150800006025070008250700082507000825070008B2
S3150800007025070008250700082507000825070008A2
S315080000802507000825070008250700082507000892
S315080000902507000825070008250700082507000882
S315080000A02507000825070008250700082507000872
S315080000B02507000825070008250700082507000862
S315080000C02507000825070008250700082507000852
S315080000D025070008250700089124000825070008B9
S315080000E02507000825070008250700082507000832
S315080000F02507000825070008250700082507000822
S315080001002507000825070008250700082507000811
S315080001102507000825070008250700082507000801
S3150800012025070008250700082507000825070008F1
S3150800013025070008250700082507000825070008E1
S3150800014025070008250700082507000825070008D1
S3150800015025070008250700082507000825070008C1
S3150800016025070008250700082507000825070008B1
S3150800017025070008250700082507000800000000D5
S30D08000180250700082507000801
S315080001C010B5054C237833B9044B13B10448AFF383
S315080001D000800123237010BD900400200000000059
S315080001E0D424000808B5034B1BB103490348AFF3F1
S315080001F0008008BD0000000094040020D4240008F4
S3150800020090F800F06DE9024520F007016FF0000C48
S3150800021010F0070491F820F040F049804FF00004F0
S315080002206FF00700D1E9002391F840F000F10800CB
S3150800023082FA4CF2A4FA8CF283FA4CF3A2FA8CF303
S315080002404BBBD1E9022382FA4CF200F10800A4FA6A
S315080002508CF283FA4CF3A2FA8CF3E3B9D1E90423BE
S3150800026082FA4CF200F10800A4FA8CF283FA4CF3F5
S31508000270A2FA8CF37BB9D1E9062301F1200182FAAF
S315080002804CF200F10800A4FA8CF283FA4CF3A2FAB5
S315080002908CF3002BC6D0002A04BF04301A4612BAC3
S315080002A0B2FA82F2FDE8024500EBD2007047D1E9C6
S315080002B0002304F00305C4F100004FEAC50514F055
S315080002C0040F91F840F00CFA05F562EA05021CBF26
S315080002D063EA050362464FF00004A9E753B94AB931
S315080002E0002908BF00281CBF4FF0FF314FF0FF3030
S315080002F000F072B9ADF1080C6DE904CE00F006F80D
S31508000300DDF804E0DDE9022304B070472DE9F04783
S31508000310089E04468846002B4BD18A42154667D963
S31508000320B2FA82F24AB1C2F1200701FA02F320FAC0
S3150800033007F7954047EA030894404FEA154E230C01
S31508000340B8FBFEF71FFA85FC0EFB178843EA08433D
S3150800035007FB0CF1994209D9EB1807F1FF3080F039
S315080003601B81994240F21881023F2B445B1AA4B2C2
S31508000370B3FBFEF00EFB103344EA034400FB0CFC0F
S31508000380A44509D92C1900F1FF3380F00781A4454B
S3150800039040F2048102382C4440EA0740A4EB0C04DE
S315080003A000271EB1D4400023C6E900433946BDE8FC
S315080003B0F0878B4209D9002E00F0EB800027C6E9AA
S315080003C0000138463946BDE8F087B3FA83F7002FAF
S315080003D047D18B4202D3824200F2FA80841A61EB3B
S315080003E0030301209846002EE0D0C6E90048DDE761
S315080003F002B9FFDEB2FA82F2002A40F08F80491B6A
S315080004004FEA154E1FFA85F80127B1FBFEFC230CAF
S315080004100EFB1C1143EA014308FB0CF1994207D96C
S31508000420EB180CF1FF3002D2994200F2CD808446D7
S31508000430591AA3B2B1FBFEF00EFB101443EA0444AA
S3150800044008FB00F8A04507D92C1900F1FF3302D2A2
S31508000450A04500F2B6801846A4EB080440EA0C4012
S315080004609FE7C7F1200CBB4022FA0CFE4EEA030EAA
S3150800047001FA07F420FA0CF521FA0CF34FEA1E48A4
S315080004802543B3FBF8F92C0C08FB19331FFA8EFA2F
S3150800049044EA034309FB0AF49C4202FA07F200FA0B
S315080004A007F10BD91EEB030309F1FF3080F08780B3
S315080004B09C4240F28480A9F1020973441B1BADB229
S315080004C0B3FBF8F008FB103345EA034400FB0AFACD
S315080004D0A24508D91EEB040400F1FF336BD2A245EE
S315080004E069D90238744440EA0940A0FB0289A4EBA2
S315080004F00A044C45C2464B4654D351D0002E69D007
S31508000500B1EB0A0564EB030404FA0CFCFD40FC405D
S315080005104CEA0505C6E90054002747E7C2F120035F
S3150800052020FA03F7954001FA02F021FA03F34FEA9D
S31508000530154E3843010CB3FBFEF71FFA85F80EFB80
S31508000540173341EA034107FB08F38B4204FA02F426
S3150800055007D9691807F1FF3C2FD28B422DD9023FE4
S315080005602944CB1A81B2B3FBFEF00EFB103341EAE5
S31508000570034100FB08F38B4207D9691800F1FF3CD9
S3150800058017D28B4215D902382944C91A40EA0747B7
S315080005903BE73746304609E70746E7E61846FBE6EF
S315080005A04145ABD2B8EB020A69EB0E020138134695
S315080005B0A4E76046E9E7184695E76746D1E7814626
S315080005C07CE702382C4447E7ACF1020C2B442FE7B2
S315080005D0384608E73746E9E6704700BF2DE9F04F89
S315080005E0EFF3038410B41446256860B4EFF3088566
S315080005F0256000F001B800BF0C46256885F3088819
S3150800060060BC256010BC4FF080752C4384F30388CA
S31508000610BDE8F04F01F08EBD0A6882F3088801F044
S315080006208DBD00BF2DE9F04FEFF3038410B41446D7
S31508000630256860B4EFF308852560FFF7EDBF00BFB6
S31508000640026882F3088808470C46256885F30888F7
S3150800065060BC256010BC4FF080752C4384F303887A
S31508000660BDE8F04F704700BF15484FF47F01026898
S315080006700A43026013486FF07F4102680A4002602D
S31508000680704700BF10484FF080510160704700BFA7
S3150800069072B60D4A4FF0006111604FF080730B4A35
S315080006A00B490FB40FB46FF0060E704706480121C8
S315080006B0C9070160FEE700BF08B062B670470000D0
S315080006C020ED00E01CED00E004ED00E0A1240008A8
S315080006D0AD060008DFF834D0002103E00C4B5B5868
S315080006E0435004310B480C4B42189A42F6D30B4A36
S315080006F002E0002342F8043B094B9A42F9D301F081
S3150800070023FC00F05DFB00F075F87047000002203E
S31508000710A82600080000002090040020900400206D
S315080007204C090020FEE708B500F066F908BD10B5CB
S31508000730044601F041FC2046FFF762FD01462046CB
S3150800074000F01EF901F040FC10BD000008B5214B71
S315080007501B78ABB9204B1B687BB16B461E4A1268E7
S315080007609A420DD001201B4B187000F013F901F0C6
S315080007701BFC1A48FFF7DBFFFEE76A46164B1A60B2
S31508000780174A136801331360164B1A6801321A6048
S315080007901A68154B9A4219D9124B00221A60134B44
S315080007A01A6801321A601B68052B06D1012001F070
S315080007B051FC0E4B00221A6002E0002001F04AFCB0
S315080007C0002000F0ABF80A48FFF7B1FF00F07CF80C
S315080007D008BD00BFB4040020B0040020EC240008C3
S315080007E0BC040020AC0400203F420F00B8040020DF
S315080007F00825000808B500F059F800F051F900F08E
S31508000800FBF8002001F0EEFB002008BD30B595B0DE
S3150800081000240194224B1A6C42F080521A641B6C15
S3150800082003F080530193019B02941E4B1A6842F40D
S3150800083080421A601B6803F480430293029B0123DB
S3150800084003934FF480330493022509954FF48003EC
S315080008500A9308230B934FF4A8730C930D9507235B
S315080008600E9303A800F09CFD0F230F931095119487
S315080008704FF4A05312934FF48053139305210FA8F6
S3150800088000F0F0FF00F03AFC41F20103984201D073
S3150800089015B030BD044A136843F480731360F7E754
S315080008A00038024000700040003C024008B500F0E5
S315080008B0E9FBFFF7ABFF08BD08B500F0F9FB08BD7B
S315080008C008B500F007FC08BD704708B5072808D822
S315080008D0DFE800F004080C1014181C20012000F0B2
S315080008E08BFB08BD012000F087FBFAE7002000F02B
S315080008F083FBF6E7002000F07FFBF2E7022000F01A
S315080009007BFBEEE7022000F077FBEAE7032000F026
S3150800091073FBE6E7032000F06FFBE2E708B507285C
S3150800092008D8DFE800F004080C1014181C20012071
S3150800093000F072FB08BD012000F06EFBFAE700200C
S3150800094000F06AFBF6E7002000F066FBF2E70220FB
S3150800095000F062FBEEE7022000F05EFBEAE7032008
S3150800096000F05AFBE6E7032000F056FBE2E700003A
S3150800097008B5024801F04CFA08BD00BFD4080020AB
S3150800098008B58AB20146024801F0C0F908BD00BFA1
S31508000990D408002010B504460321164B53F820004E
S315080009A0FFF7EEFF072C08D8DFE804F004080C1060
S315080009B014181C20012000F00FFB10BD012000F0C8
S315080009C00BFBFAE7002000F007FBF6E7002000F033
S315080009D003FBF2E7022000F0FFFAEEE7022000F040
S315080009E0FBFAEAE7032000F0F7FAE6E7032000F04F
S315080009F0F3FAE2E7A025000870B588B00024009451
S31508000A00234B1A6B42F001021A631A6B02F00102B9
S31508000A100092009A01941A6B42F001021A631A6B4B
S31508000A2002F001020192019A02941A6C42F4003211
S31508000A301A641B6C03F400330293029B042303938A
S31508000A40022304930594069307260796114D03A9D6
S31508000A50284600F0B5FB08230393079603A9284602
S31508000A6000F0AEFB0C480D4B03604FF4E1334360D6
S31508000A708460C460046184610C234361C46101F02D
S31508000A8016F908B908B070BD0120FFF783FFFEE725
S31508000A900038024000000240D4080020004400400C
S31508000AA008B5012000F03EFA002000F03BFA0220CB
S31508000AB000F038FA032000F035FAFFF79DFF08BD6D
S31508000AC030B484B0024608B1002014E030230B701D
S31508000AD000234B7020E0124BA3FB0243DB081D46A4
S31508000AE003EB83035C00131B303304AA024402F8A9
S31508000AF00C3C2A4601305AB10928ECD9002207E0F5
S31508000B00831A013B04AC234413F80C3C8B54013282
S31508000B109042F5D800230B5404B030BC704700BF90
S31508000B20CDCCCCCC10B483B0034608B100200EE07F
S31508000B3030230B7000234B701AE003F00F020E4CA3
S31508000B40A45C02AA024402F8084C1B0901305BB1F6
S31508000B500728F2D9002307E0C21A013A02AC224458
S31508000B6012F8082CCA5401339842F5D800230B54BE
S31508000B7003B010BC704700BFD82500082DE9F04324
S31508000B8087B0064688460193044657E002F10109F4
S31508000B905378633B152B5ED8DFE803F0480B5D5DA1
S31508000BA05D5D5D5D5D5D5D5D5D5D5D5D395D5D5D8B
S31508000BB05D26019B1A1D01921868002804DB02A90C
S31508000BC0FFF77EFF02AB07E02D2323704042013476
S31508000BD0F5E72270013301341A78002A44D0E11B64
S31508000BE0A942F6D34A4628E0019B1A1D019202A99A
S31508000BF01868FFF797FF02AB02E022700133013451
S31508000C001A789AB3E11BA942F7D34A4615E0019B25
S31508000C101A1D01921A6802E0013223700134137812
S31508000C2033B3E11BA942F7D34A4606E0019B1A1DD6
S31508000C3001921B78237001344A4601321178C9B1F2
S31508000C403746A31B08F1FF35AB4213D225299DD0A1
S31508000C5021700134F1E72346252103F8021B527857
S31508000C6062701C464A46E8E74A46E6E74A46E4E72B
S31508000C704A46E2E700232370A01B07B0BDE8F083CD
S31508000C800FB400B5A3B024AB53F8042B019380210D
S31508000C9002A8FFF773FF02A8FFF749FD23B05DF826
S31508000CA004EB04B07047000000B583B01E48FFF798
S31508000CB03EFD0720FFF76EFE4FF47A70FFF700FE41
S31508000CC01A4B1988142300934823194A1948FFF721
S31508000CD0D7FF0720FFF7F9FD4FF47A70FFF7F0FD0D
S31508000CE0154B1B782BB9154B1B6863B96A46134B12
S31508000CF01A600E4A138801339BB2138001F0D6F9A5
S31508000D0003B05DF804FB6B460C4A12689A42F0D0B1
S31508000D100120094B1870FFF73DFE01F045F9084818
S31508000D20FFF705FDFEE700BFEC25000814090020C3
S31508000D30F4250008FC2500082009002018090020D1
S31508000D403026000808B51948FFF7F1FC0420FFF71C
S31508000D5021FE4FF47A70FFF7B3FD0420FFF7B5FDC7
S31508000D604FF47A70FFF7ACFD114B1B782BB9114B7A
S31508000D701B6853B96A460F4B1A600F4A138801332A
S31508000D809BB2138001F092F908BD6B46094A1268B6
S31508000D909A42F2D00120064B1870FFF7FBFD01F0CE
S31508000DA003F90648FFF7C3FCFEE700BF4C26000818
S31508000DB0210900201C0900201609002054260008D5
S31508000DC070B50D4E0D4D761BB61006D000240134B5
S31508000DD055F8043B9847A642F9D1094E094D761BAA
S31508000DE001F078FBB61006D00024013455F8043B10
S31508000DF09847A642F9D170BD9C2600089C26000893
S31508000E00A42600089C260008024B13B1024800F0ED
S31508000E1005B8704700000000290E000800230146A7
S31508000E201A46184600F01EB838B50A4C0A4D641B17
S31508000E30A4100AD004F18043013B05EB8305013C6D
S31508000E4055F804399847002CF9D1BDE8384001F027
S31508000E5047BB00BFA8260008A4260008704700BFA5
S31508000E60704700BF2DE9F8432B4D0646286898467B
S31508000E700F469146FFF7F2FF284B1C68D4F8483115
S31508000E80002B3DD05A681F2A0DDC02F1010C16BB57
S31508000E900232C3F804C0286843F82270FFF7E0FF5F
S31508000EA00020BDE8F8831E4B7BB34FF4C870AFF340
S31508000EB00080034648B3D4F848210021C0E9002140
S31508000EC04FF0010CC4F848010A46C0F88811C0F86A
S31508000ED08C11002EDCD003EB82010124C1F8889026
S31508000EE0D3F8880194402043022EC3F88801C1F83C
S31508000EF00881CDD1D3F88C110C43C3F88C41C7E7D0
S31508000F0004F5A673C4F84831BCE72868FFF7A8FFBC
S31508000F104FF0FF30C5E700BF7004002070260008B8
S31508000F200000000070B58AB0044690B1012833D09D
S31508000F3002283ED0032818D100230493234B1A6BAA
S31508000F4042F008021A631B6B03F008030493049B20
S31508000F500BE0002301931D4B1A6B42F008021A633B
S31508000F601B6B03F008030193019B194B33F81460BC
S31508000F70059601230693079302230893154D05A9A1
S31508000F8055F8240000F01CF90022314655F82400D3
S31508000F9000F0F6F90AB070BD002302930B4B1A6BEA
S31508000FA042F008021A631B6B03F008030293029BC4
S31508000FB0DBE700230393054B1A6B42F008021A631A
S31508000FC01B6B03F008030393039BCEE7003802402C
S31508000FD0742600087404002008B50122044B33F86F
S31508000FE01010044B53F8200000F0CAF908BD00BFE2
S31508000FF0742600087404002008B50022044B33F850
S315080010001010044B53F8200000F0BAF908BD00BFD1
S31508001010742600087404002008B5044B33F8101031
S31508001020034B53F8200000F0B1F908BD74260008F8
S31508001030740400207047000010B504460E4B18785B
S315080010404FF47A73B3FBF0F30C4A1068B0FBF3F075
S3150800105000F0A0F868B90F2C01D901200AE0002297
S3150800106021464FF0FF3000F061F8054B1C60002068
S3150800107000E0012010BD00BF840400208C0400207D
S315080010808804002008B5094B1A6842F400721A60F1
S315080010901A6842F480621A60032000F035F80F20BF
S315080010A0FFF7CAFFFFF7C6FF002008BD003C024055
S315080010B0034A1168034B1B780B441360704700BF43
S315080010C02409002084040020014B1868704700BFDB
S315080010D02409002038B50446FFF7F6FF0546B4F1A3
S315080010E0FF3F02D0044B1B781C44FFF7EDFF401B63
S315080010F0A042FAD338BD00BF84040020014B18680B
S31508001100000C7047002004E0074AD36823F4E06324
S315080011101B041B0C000200F4E060184340F0BF609B
S3150800112040F40030D060704700ED00E030B4174B53
S31508001130DB68C3F30223C3F10704042C28BF042485
S315080011401D1D062D18D9033B4FF0FF3505FA04F48B
S3150800115021EA0401994005FA03F322EA0303194335
S3150800116000280BDB0901C9B200F1604000F56140B7
S3150800117080F8001330BC70470023E5E700F00F0045
S315080011800901C9B2024B1954F4E700BF00ED00E0AB
S3150800119014ED00E00138B0F1807F0AD2064B5860A2
S315080011A0064AF02182F823100020986007221A6068
S315080011B070470120704700BF10E000E000ED00E036
S315080011C0F0B583B0002336E0072200E00022AA40EB
S315080011D03A430234664D45F82420664A1468F243B9
S315080011E002EA04054F6817F4803F01D046EA040571
S315080011F0604C2560646802EA04054F6817F4003FEE
S3150800120001D046EA04055B4C6560A46802EA040559
S315080012104F6817F4801F01D046EA0405554CA560AF
S31508001220E46822404D6815F4001F01D046EA04021E
S31508001230504CE26001330F2B00F2988001229A404D
S315080012400C6804EA0206B242F4D14C68651E012D08
S3150800125003D9112C01D0122C12D185685F00032402
S31508001260BC4025EA0405CC68BC402C43846045682C
S3150800127025EA02054C68C4F300129A402A434260E4
S31508001280C4685F000322BA40D24314408D68BD404B
S315080012902543C5604C68022C01D0122C13D1DD08F9
S315080012A0083550F825E003F007044FEA840C0F24AC
S315080012B004FA0CF42EEA040E0C6904FA0CF444EA57
S315080012C00E0440F82540046822404C6804F00304E4
S315080012D0BC40224302604A6812F0805FAAD000220E
S315080012E00192254A546C44F480445464526C02F4C6
S315080012F080420192019A9C08A51C1D4A52F8257045
S3150800130003F0030295000F22AA4027EA02071B4AA8
S3150800131090423FF45BAF02F5806290421AD002F524
S315080013208062904218D002F58062904216D002F58B
S315080013308062904214D002F58062904212D002F583
S315080013408062904210D002F5806290423FF43CAF32
S3150800135008223CE701223AE7022238E7032236E769
S31508001360042234E7052232E7062230E703B0F0BD4F
S3150800137000380140003C01400038024000000240AD
S3150800138012B909048161704781617047436931EA7E
S31508001390030301D081617047090481617047000029
S315080013A070B582B00446002800F0E181036813F0A6
S315080013B0010F3BD0A74B9B6803F00C03042B2CD0E2
S315080013C0A44B9B6803F00C03082B21D06368B3F584
S315080013D0803F4FD0B3F5A02F52D09E4B1A6822F407
S315080013E080321A601A6822F480221A606368002B19
S315080013F050D0FFF769FE0546964B1B6813F4003F6D
S3150800140014D1FFF761FE401B6428F5D90320AFE12C
S31508001410904B5B6813F4800FD8D08E4B1B6813F47F
S31508001420003F03D06368002B00F0A481236813F003
S31508001430020F55D0874B9B6813F00C0F3ED0854B97
S315080014409B6803F00C03082B33D0E368002B68D0A5
S31508001450814B01221A60FFF737FE05467D4B1B6854
S3150800146013F0020F54D1FFF72FFE401B0228F5D9BF
S3150800147003207DE1774A136843F480331360B5E7A8
S31508001480744B1A6842F480221A601A6842F4803251
S315080014901A60ABE7FFF718FE05466E4B1B6813F498
S315080014A0003FC3D0FFF710FE401B6428F5D9032080
S315080014B05EE1684B5B6813F4800FC6D1654B1B6809
S315080014C013F0020F04D0E368012B01D001204FE18D
S315080014D0604A136823F0F803216943EAC1031360DD
S315080014E0236813F0080F40D0636963B35B4B01228E
S315080014F01A60FFF7E9FD0546564B5B6F13F0020FBE
S3150800150033D1FFF7E1FD401B0228F5D903202FE16F
S31508001510504A136823F0F803216943EAC1031360AC
S31508001520DEE74D4B00221A60FFF7CEFD0546494B14
S315080015301B6813F0020FD3D0FFF7C6FD401B022825
S31508001540F5D9032014E1454B00221A60FFF7BCFDCC
S315080015500546404B5B6F13F0020F06D0FFF7B4FD4C
S31508001560401B0228F5D9032002E1236813F0040F73
S3150800157079D0384B1B6C13F0805F33D1002301936D
S31508001580344B1A6C42F080521A641B6C03F0805379
S315080015900193019B0125324B1B6813F4807F23D0EE
S315080015A0A368012B34D0052B38D02A4B1A6F22F0AA
S315080015B001021A671A6F22F004021A67A368002B41
S315080015C036D0FFF781FD0646224B1B6F13F0020F3C
S315080015D048D1FFF779FD801B41F288339842F3D949
S315080015E00320C5E00025D6E71D4A136843F4807337
S315080015F01360FFF769FD0646194B1B6813F4807FD5
S31508001600CED1FFF761FD801B0228F5D90320AFE094
S31508001610104A136F43F001031367CFE70D4B1A6F98
S3150800162042F004021A671A6F42F001021A67C5E708
S31508001630FFF74AFD0646074B1B6F13F0020F11D042
S31508001640FFF742FD801B41F288339842F3D9032005
S315080016508EE000BF0038024000004742800E474235
S3150800166000700040EDB9A369002B00F08580454A5B
S31508001670926802F00C02082A51D0022B17D0424B6E
S3150800168000221A60FFF720FD04463E4B1B6813F044
S31508001690007F42D0FFF718FD001B0228F5D903206A
S315080016A066E0384A136C23F080531364DBE7364B45
S315080016B000221A60FFF708FD0546324B1B6813F037
S315080016C0007F06D0FFF700FD401B0228F5D903204E
S315080016D04EE0E369226A1343626A43EA8213A26A06
S315080016E05208013A43EA0243E26A43EA0263254A98
S315080016F05360254B01221A60FFF7E6FC0446214B8E
S315080017001B6813F0007F06D1FFF7DEFC001B0228DA
S31508001710F5D903202CE000202AE0002028E0012B40
S315080017202CD0184B5B6803F48001E269914201D022
S3150800173001201DE003F03F02216A8A4201D0012000
S3150800174016E0616A47F6C0721A408A4201D0012043
S315080017500EE003F44032A16A8A4201D0012007E074
S3150800176003F07063E26A93420AD0012000E0012088
S3150800177002B070BD0120FBE70020F9E70120F7E77A
S315080017800020F5E700380240600047422DE9F04B9B
S31508001790314B9B6803F00C03042B5AD0082B02D05C
S315080017A02E48BDE8F08B2C4B5A6802F03F025B6866
S315080017B013F4800F2AD0284B5B68C3F388131E46A0
S315080017C000275C010025E41A65EB0705A90141EA33
S315080017D09461A001001B61EB0501CB0043EA50733D
S315080017E0C400A01943EB07014B0243EAD053440255
S315080017F0204619460023FEF771FD174B5B68C3F3B5
S31508001800014301335B00B0FBF3F0CAE7124B5B6898
S31508001810C3F388131E4600275C010025E41A65EB0E
S315080018200705A90141EA9461A001001B61EB0501C6
S31508001830CB0043EA5073C400A01943EB07018B029F
S3150800184043EA90538402204619460023FEF746FDD4
S31508001850D3E70348A5E700BF003802400024F40098
S3150800186000127A0070B50D460446002800F09B80E9
S315080018704F4B1B6803F00F038B4209D2CBB24C4A7D
S315080018801370136803F00F038B4201D001208BE01D
S31508001890236813F0020F17D013F0040F04D0454A3B
S315080018A0936843F4E0539360236813F0080F04D059
S315080018B0404A936843F4604393603E4A936823F032
S315080018C0F003A1680B439360236813F0010F32D02D
S315080018D06368012B21D09A1E012A25D9354A126838
S315080018E012F0020F61D033498A6822F003021343CB
S315080018F08B60FFF7E9FB06462E4B9B6803F00C034B
S315080019006268B3EB820F16D0FFF7DEFB801B41F24D
S3150800191088339842F0D9032046E0264A126812F422
S31508001920003FE0D101203FE0224A126812F0007F12
S31508001930D9D1012038E01E4B1B6803F00F03AB42D8
S3150800194009D9EAB21A4B1A701B6803F00F03AB42A7
S3150800195001D0012028E0236813F0040F06D0154AA9
S31508001960936823F4E053E1680B439360236813F00C
S31508001970080F07D00F4A936823F46043216943EAA6
S31508001980C1039360FFF702FF0A4B9B68C3F3031377
S31508001990094AD35CD840094B1860094B1868FFF709
S315080019A04BFB002000E0012070BD0120FCE700BFD2
S315080019B0003C0240003802407C2600088C040020C7
S315080019C088040020014B1868704700BF8C0400206B
S315080019D008B5FFF7F7FF044B9B68C3F38223034A56
S315080019E0D35CD84008BD00BF003802408C260008EA
S315080019F008B5FFF7E7FF044B9B68C3F34233034A76
S31508001A00D35CD84008BD00BF003802408C260008C9
S31508001A100268D36823F49073D3600268536923F08D
S31508001A2001035361202380F83A30704790F8393023
S31508001A30DBB2212B2AD18368B3F5805F16D0036AFF
S31508001A405A1C02621A7803685A60C38C013B9BB21F
S31508001A50C384EBB90268D36823F08003D3600268B5
S31508001A60D36843F04003D36000207047036A1B889D
S31508001A700268C3F30803536003691BB9036A023398
S31508001A800362E2E7036A01330362DEE70220704776
S31508001A90002070472DE9F04B04460268136923F4C9
S31508001AA04053C1680B431361836802691343426953
S31508001AB01343C2691A430168CB6823F4164323F01B
S31508001AC00C031343CB600268536923F4407381699E
S31508001AD00B435361C369B3F5004F3BD00368714AA2
S31508001AE0934200F0AB8002F58062934200F0A68034
S31508001AF0FFF76EFF4FF00009061849EB090716EBCA
S31508001B00000B47EB090C4FEACC0343EA5B734FEA39
S31508001B10CB0293469C4663689A009B0F10EB0B001A
S31508001B2049EB0C01FEF7DAFB5F4DA5FB00325109C4
S31508001B30642202FB110213013233A5FB03235B095E
S31508001B4003F0F00202EB011203F00F0321681344BD
S31508001B508B60A4E00368534A934239D002F5806249
S31508001B60934235D0FFF734FF83464FF0000C061832
S31508001B704CEB0C0716EB000847EB0C094FEAC903B8
S31508001B8043EA58734FEAC8029046994662680021AC
S31508001B90921841EB01031BEB08004CEB0901FEF719
S31508001BA09DFB414DA5FB00325109642202FB11023F
S31508001BB0D3003233A5FB03235B095A0002F4F872FB
S31508001BC002EB011203F00703216813448B6066E0F9
S31508001BD0FFF70EFF80464FF00009061849EB090784
S31508001BE016EB000B47EB090C4FEACC0343EA5B7391
S31508001BF04FEACB0293469C4662680021921841EB55
S31508001C00010318EB0B0049EB0C01FEF767FB264DA9
S31508001C10A5FB00325109642202FB1102D3003233BC
S31508001C20A5FB03235B095A0002F4F87202EB0112C2
S31508001C3003F00703216813448B6030E0FFF7D8FEF2
S31508001C404FF00009061849EB090716EB000B47EB9E
S31508001C50090C4FEACC0343EA5B734FEACB0293467F
S31508001C609C4663689A009B0F10EB0B0049EB0C012E
S31508001C70FEF734FB0C4DA5FB00325109642202FB2A
S31508001C80110213013233A5FB03235B0903F0F002AB
S31508001C9002EB011203F00F03216813448B60BDE8C1
S31508001CA0F08B00BF001001401F85EB51704710B53F
S31508001CB0044648B390F839300BB3242384F83930F6
S31508001CC02268D36823F40053D3602046FFF7E2FE68
S31508001CD02268136923F4904313612268536923F039
S31508001CE02A0353612268D36843F40053D360002063
S31508001CF0E063202384F8393084F83A3010BD80F840
S31508001D003830FFF7D3FFD8E70120F7E790F83930E6
S31508001D10DBB2202B16D1B9B1C2B190F83830012BFD
S31508001D2016D001628284C2840023C363212280F80C
S31508001D30392080F838300168CA6842F08002CA60E3
S31508001D4018467047022070470120704701207047E7
S31508001D5002207047704708B50168CB6823F0400336
S31508001D60CB60202380F83930FFF7F4FF002008BD48
S31508001D70704708B590F83A30DBB2222B45D1836814
S31508001D80B3F5805F0ED0036903BB03685A68836A9C
S31508001D90591C81621A70C38D013B9BB2C385F3B18E
S31508001DA0002033E0826A036943B903685B68C3F3BA
S31508001DB008031380836A02338362ECE703685B686F
S31508001DC0DBB21380836A01338362E4E703685B68E6
S31508001DD0826A511C816203F07F031370DBE7026895
S31508001DE0D36823F02003D3600268D36823F4807392
S31508001DF0D3600268536923F001035361202380F8F6
S31508001E003A30FFF7B5FF002000E0022008BD704712
S31508001E1010B5044602681368D168526913F00F00BA
S31508001E2005D113F0200F02D011F0200F56D100284B
S31508001E306AD012F0010202D111F4907F64D013F037
S31508001E40010F06D011F4807F03D0E06B40F001004B
S31508001E50E06313F0040F04D01AB1E06B40F00200FF
S31508001E60E06313F0020F04D01AB1E06B40F00400EF
S31508001E70E06313F0080F07D011F0200F00D11AB154
S31508001E80E26B42F00802E263E26B002A48D013F0E4
S31508001E90200F02D011F0200F24D123685B6903F0CC
S31508001EA04003E26B12F0080F00D13BB32046FFF760
S31508001EB0AFFD23685A6912F0400F1BD05A6922F009
S31508001EC040025A61636B8BB11A4A1A65606B00F05F
S31508001ED043F828B3606B036D984721E02046FFF767
S31508001EE048FF1DE02046FFF744FFD6E72046FFF7E8
S31508001EF08EFF15E02046FFF78AFF11E02046FFF720
S31508001F0086FF0023E3630BE013F0800F02D011F085
S31508001F10800F06D113F0400F02D011F0400F04D104
S31508001F2010BD2046FFF782FDFAE72046FFF713FFAC
S31508001F30F6E700BF391F000808B5806B0023C38584
S31508001F40C384FFF764FF08BD024B4FF000629A6036
S31508001F50704700BF00ED00E090F83530DBB2022B89
S31508001F6003D08023436501207047052380F8353068
S31508001F700268136823F001031360002070470B7F83
S31508001F8023B1FF2B09D001330B777047EFF310828B
S31508001F9072B64A6101330B777047036803221A74D5
S31508001FA019229A7472B6FEE7024B1B6872B60122B2
S31508001FB09A7770471025000808B502480168FFF7A8
S31508001FC0DEFF08BD10250008054B1A68137F33B1DC
S31508001FD0013BDBB2137713B9536983F31088704753
S31508001FE010250008F8B50646194B1D68EFF311844D
S31508001FF02309013B072B02D9802383F311882B7C05
S3150800200033B1012018B124F00F0484F31188F8BD08
S3150800201000F089F90E4B9F6801232B746E74FEF746
S3150800202082FB2B7CDBB2012B05D02B7CDBB2022B8F
S3150800203004D00020E6E702232B74F6E77A681146F7
S315080020403846FEF7EFFA384600F0B3F80020D9E72D
S315080020501025000870B5144B9B6898421FD2124B86
S315080020605B6853F82060337C012B1AD8EFF311858F
S315080020702B09013B072B02D9802383F311883046AD
S3150800208000F08CF8044628B125F00F0585F3118871
S31508002090204670BD3146044800F0A8F8F4E703244A
S315080020A0F6E70324F4E700BF1C25000808B50E4B25
S315080020B01B681A68197F21B100211977596981F3BC
S315080020C01088997F11B10021997762B6EFF31183D1
S315080020D01B09013B072B02D9802383F31188034987
S315080020E05068FEF7ADFA00BF102500083523000832
S315080020F008B50E4B1B6800225A771A7F22B10022B8
S315080021001A775A6982F310889A7F12B100229A7751
S3150800211062B6EFF311831B09013B072B02D9802313
S3150800212083F3118802494068FEF78AFA10250008E9
S3150800213035230008836804229A70704738B5054627
S3150800214083685C78FFF7F6FFFF2C06D014F0800F43
S3150800215008D1002383F3118862B66B69984728462D
S31508002160FFF7C6FFC4F10F042401E4B284F3118813
S31508002170F2E7000008B5084B1B681B7CDBB2022B94
S3150800218005D1054B5B68002BF5D09847F3E7024B62
S31508002190986800F0B9F808BD102500088268137819
S315080021A0817E8B4203D201331370002070470420CE
S315080021B070478268037E53701378013BDBB2137055
S315080021C013B10123937070479370704708B59378DD
S315080021D00BB90123937083681A68826000221A601B
S315080021E00A461946043000F027F908BD70B58A6812
S315080021F00E4B18680468A5686E7853789E4203D318
S31508002200FFF7E4FF002070BD83681A688260002229
S315080022101A600222AA705960C2681A60C360016017
S31508002220204600F051F80120EDE700BF1025000810
S315080022302DE9F0411B4B1C682568AE680D60B37824
S31508002240042B15D0E1680B68E3602B7E73700123BD
S31508002250B370231D2A461D46184600F0EDF8294698
S31508002260104800F0A5F8C0B127683846BDE8F081E7
S31508002270211D0C4800F0E6F880462768BD4208D0C4
S315080022802846FFF796FFA368C8F80030C4F8088008
S31508002290EBE73378013B3370F5E7E3685F6827605F
S315080022A0E3E700BF1025000810B506480468211D9D
S315080022B000F07EF820B1216800F006F8012010BD74
S315080022C00020FCE71025000808B50B468A689278B6
S315080022D0022A05D0426849681846FEF7A3F908BDE0
S315080022E0426849681846FEF779F9F8E708B50846D6
S315080022F08B689B78022B03D04968FEF78DF908BDD9
S315080023004968FEF779F9FAE710B5036841681C6869
S315080023100A6800E01A4613680BB19C42FAD10A60B3
S31508002320FEF76AF910BD08B5FEF79EF900F09CF8AD
S3150800233008BD000070B582B0144B1C68E5682B68B0
S3150800234073B15E682268127C022A0CD001A9104873
S31508002350FFF76EFF01460198FFF7C8FF02B070BD90
S315080023600A4A9668EEE7E3606868FFF722FF266088
S31508002370B36804229A70A3682B60A560FEF782F9F9
S3150800238071683046FEF738F9E8E700BF10250008FF
S315080023901C25000810B44B689A68C4680C60C160B4
S315080023A003605B7E5178994200D2537010BC704727
S315080023B070B502680B68D46894B16468B3B1A06854
S315080023C046785D68AD686D78AE4211D20225857093
S315080023D01868086019461046FFF7DCFF204670BDEE
S315080023E043B18468A06802258570F1E70024F5E703
S315080023F00024F3E70024F1E7F0B44B689C6817461D
S315080024001AB11E7E0368002506E06678FAE7627848
S31508002410B24208D31D461B682BB15A689468002F30
S31508002420F5D0127EF4E725B1296000200B60F0BCD8
S31508002430704701600120F9E708B54A600122FFF7F5
S31508002440DBFF08BD70B506460468E5682B68E360DF
S31508002450FFF7AEFFE36808B1284670BD13B15B68A5
S315080024602360F9E7B368FBE7074B1A6822F47002A2
S315080024701A601A6842F4E0021A60044A136843F0C4
S3150800248040031360704700BF24E400E004E100E065
S3150800249008B5024800F01AF808BD00BF710900081F
S315080024A010B5EFF311842309013B072B02D98023CA
S315080024B083F3118862B60448FFF7F6FE72B624F075
S315080024C00F0484F3118810BD1C25000808B5804741
S315080024D008BD0000F8B500BFF8BC08BC9E467047AA
S311080024E0F8B500BFF8BC08BC9E46704763
S315080024EC54657374204661696C65642121212C201E
S315080024FC6C696E653A313133200D0A0049646C6596
S3150800250C0D0A0000000000204D0700087825000879
S3150800251CC00400209425000803000000C80400200D
S3150800252C00020000D0060020000200000000022075
S3150800253C0004000028250008200000203C0000208C
S3150800254C0000000000000000A90C000801010100B1
S3150800255C30250008240000203F0000200100000060
S3150800256C00000000450D000801010100382500088F
S3150800257C2800002042000020020000000300000092
S3150800258C7521000800000100402500085C2500089C
S3150800259C78250008F025000850260008C0250008F4
S315080025ACC4250008C8250008CC250008D025000835
S315080025BCD4250008330D0A00340D0A00350D0A001F
S315080025CC360D0A00370D0A00380D0A003031323341
S315080025DC3435363738394142434445460000000005
S315080025EC5461736B310D0A00554152543200000088
S315080025FC535452494E4720544553542C2054617316
S3150800260C6B3A2025640D0A206D73673A2025732CC6
S3150800261C2063683A2025632C206865783A2025645F
S3150800262C0000000054657374204661696C6564216A
S3150800263C21212C206C696E653A313033200D0A0045
S3150800264C5461736B320D0A005465737420466169C4
S3150800265C6C65642121212C206C696E653A31333303
S3150800266C200D0A00480000200010002000400080C1
S3150800267C0000000000000000010203040607080918
S30D0800268C00000000010203042E
S30D0800269478DCFF7F010000005D
S30D0800269C090E0008E50100081B
S309080026A4C10100085A
S315080026A878250008000000002C0000200000000023
S315080026B800FF000000000000000000000000000005
S315080026C8C8060020D00800200000000034000020BA
S315080026D800000000000000000000000000010000E3
S315080026E80100010004000000000000003403002077
S315080026F89C030020040400200000000000000000DD
S3150800270800000000000000000000000000000000B3
S3150800271800000000000000000000000000000000A3
S315080027280000000000000000000000000000000093
S315080027380000000000000000000000000000000083
S315080027480000000000000000000000000000000073
S315080027580000000000000000000000000000000063
S315080027680000000000000000000000000000000053
S315080027780000000000000000000000000000000043
S315080027880000000000000000000000000000000033
S3150800279801000000000000000E33CDAB34126DE6D0
S315080027A8ECDE05000B000000000000000000000039
S315080027B80000000000000000000000000000000003
S315080027C800000000000000000000000000000000F3
S315080027D800000000000000000000000000000000E3
S315080027E800000000000000000000000000000000D3
S31508002B1828090020000C0240000C0240000C024064
S31508002B28000C024001000000100000000024F40018
S705080006D517
