S01100006572696B61336170702E7372656393
S3150800000000000220F10F0008FD070008650C000833
S31508000010670C0008690C00086B0C0008000000005B
S315080000200000000000000000000000006D0C000841
S315080000306F0C000800000000D5070008710C0008C6
S31508000040411000084110000841100008411000083E
S31508000050411000084110000841100008411000082E
S31508000060411000084110000841100008411000081E
S31508000070411000084110000841100008411000080E
S3150800008041100008411000084110000841100008FE
S3150800009041100008411000084110000841100008EE
S315080000A041100008411000084110000841100008DE
S315080000B041100008411000084110000841100008CE
S315080000C041100008411000084110000841100008BE
S315080000D04110000841100008ED44000841100008CE
S315080000E0411000084110000841100008411000089E
S315080000F0411000084110000841100008411000088E
S31508000100411000084110000841100008411000087D
S31508000110411000084110000841100008411000086D
S31508000120411000084110000841100008411000085D
S31508000130411000084110000841100008411000084D
S31508000140411000084110000841100008411000083D
S315080001507108000841100008411000084110000805
S31508000160411000084110000841100008411000081D
S315080001704110000841100008411000080000000066
S30D080001804110000841100008B7
S315080001C010B5054C237833B9044B13B10448AFF383
S315080001D000800123237010BD900400200000000059
S315080001E03045000808B5034B1BB103490348AFF374
S315080001F0008008BD00000000940400203045000877
S31508000200844641EA000313F003036DD1403A41D313
S3150800021051F8043B40F8043B51F8043B40F8043BD2
S3150800022051F8043B40F8043B51F8043B40F8043BC2
S3150800023051F8043B40F8043B51F8043B40F8043BB2
S3150800024051F8043B40F8043B51F8043B40F8043BA2
S3150800025051F8043B40F8043B51F8043B40F8043B92
S3150800026051F8043B40F8043B51F8043B40F8043B82
S3150800027051F8043B40F8043B51F8043B40F8043B72
S3150800028051F8043B40F8043B51F8043B40F8043B62
S31508000290403ABDD2303211D351F8043B40F8043B02
S315080002A051F8043B40F8043B51F8043B40F8043B42
S315080002B051F8043B40F8043B103AEDD20C3205D312
S315080002C051F8043B40F8043B043AF9D2043208D00A
S315080002D0D2071CBF11F8013B00F8013B01D30B887C
S315080002E003806046704700BF082A13D38B078DD05A
S315080002F010F003038AD0C3F10403D21ADB071CBF2C
S3150800030011F8013B00F8013B80D331F8023B20F895
S31508000310023B7BE7043AD9D3013A11F8013B00F8CE
S31508000320013BF9D20B7803704B7843708B78837056
S315080003306046704700000000000000000000000052
S3150800034090F800F06DE9024520F007016FF0000C07
S3150800035010F0070491F820F040F049804FF00004AF
S315080003606FF00700D1E9002391F840F000F108008A
S3150800037082FA4CF2A4FA8CF283FA4CF3A2FA8CF3C2
S315080003804BBBD1E9022382FA4CF200F10800A4FA29
S315080003908CF283FA4CF3A2FA8CF3E3B9D1E904237D
S315080003A082FA4CF200F10800A4FA8CF283FA4CF3B4
S315080003B0A2FA8CF37BB9D1E9062301F1200182FA6E
S315080003C04CF200F10800A4FA8CF283FA4CF3A2FA74
S315080003D08CF3002BC6D0002A04BF04301A4612BA82
S315080003E0B2FA82F2FDE8024500EBD2007047D1E985
S315080003F0002304F00305C4F100004FEAC50514F014
S31508000400040F91F840F00CFA05F562EA05021CBFE4
S3150800041063EA050362464FF00004A9E753B94AB9EF
S31508000420002908BF00281CBF4FF0FF314FF0FF30EE
S3150800043000F074B9ADF1080C6DE904CE00F006F8C9
S31508000440DDF804E0DDE9022304B070472DE9F04742
S31508000450089E0D4604468846002B4DD18A4294468E
S3150800046068D9B2FA82F252B101FA02F3C2F1200156
S3150800047020FA01F10CFA02FC41EA030894404FEA1B
S315080004801C45210CB8FBF5FE1FFA8CF705FB1E83ED
S3150800049041EA03430EFB07F199420BD91CEB030310
S315080004A00EF1FF3080F01E81994240F21B81AEF1B9
S315080004B0020E63445B1AA4B2B3FBF5F005FB1033D6
S315080004C044EA034400FB07F7A7420AD91CEB0404D5
S315080004D000F1FF3380F00881A74240F205816444A9
S315080004E00238E41B40EA0E4000211EB1D440002326
S315080004F0C6E90043BDE8F0878B4208D9002E00F014
S31508000500EE800021C6E900050846BDE8F087B3FA83
S3150800051083F100294AD1AB4202D3824200F2F98024
S31508000520841A65EB030301209846002EE2D0C6E93B
S315080005300048DFE702B9FFDEB2FA82F2002A40F08D
S315080005409180A1EB0C054FEA1C471FFA8CFE01218E
S31508000550B5FBF7F307FB1350250C45EA00450EFBE0
S3150800056003F0A84208D91CEB050503F1FF3802D2AF
S31508000570A84200F2CB8043462D1AA4B2B5FBF7F089
S3150800058007FB105544EA05440EFB00FEA64508D9AC
S315080005901CEB040400F1FF3502D2A64500F2BB802D
S315080005A02846A4EB0E0440EA03409EE7C1F1200763
S315080005B08B4022FA07FC4CEA030C20FA07F405FAEA
S315080005C001F31C43FD404FEA1C4900FA01F3B5FB51
S315080005D0F9F8200C1FFA8CFE09FB185540EA054568
S315080005E008FB0EF0A84202FA01F20BD91CEB05052E
S315080005F008F1FF3A80F08880A84240F28580A8F189
S31508000600020865442D1AA4B2B5FBF9F009FB10558A
S3150800061044EA054500FB0EFEAE4508D91CEB050568
S3150800062000F1FF346CD2AE456AD90238654440EA17
S315080006300840A0FB0294A5EB0E05A542C846A646AF
S3150800064056D353D05EB1B3EB080265EB0E0505FA37
S3150800065007F722FA01F3CD401F43C6E900750021CA
S31508000660BDE8F087C2F1200320FA03F10CFA02FC78
S3150800067025FA03F395400D434FEA1C471FFA8CFEF3
S31508000680B3FBF7F107FB11302B0C43EA004301FBE0
S315080006900EF0984204FA02F408D91CEB030301F1A0
S315080006A0FF382FD298422DD9023963441B1AADB2AE
S315080006B0B3FBF7F007FB103345EA034500FB0EF3DF
S315080006C0AB4208D91CEB050500F1FF3816D2AB4240
S315080006D014D902386544ED1A40EA014138E7314633
S315080006E0304607E78646E5E61846FAE64B45A9D2B8
S315080006F0B9EB020864EB0C0E0138A3E74046EAE7BB
S31508000700204694E74146D1E7D0467BE7023B65445D
S3150800071032E7084609E76444023842E7704700BFF3
S315080007202DE9F04FEFF3038410B41446256860B43E
S31508000730EFF30885256000F001B800BF0C46256870
S3150800074085F3088860BC256010BC4FF080752C4383
S3150800075084F30388BDE8F04F03F052BD0A6882F3BC
S31508000760088803F051BD00BF2DE9F04FEFF303846D
S3150800077010B41446256860B4EFF308852560FFF7C2
S31508000780EDBF00BF026882F3088808470C46256853
S3150800079085F3088860BC256010BC4FF080752C4333
S315080007A084F30388BDE8F04F704700BF15484FF43F
S315080007B07F0102680A43026013486FF07F410268AE
S315080007C00A400260704700BF10484FF08051016030
S315080007D0704700BF72B60D4A4FF0006111604FF0C6
S315080007E080730B4A0B490FB40FB46FF0060E7047AF
S315080007F006480121C9070160FEE700BF08B062B6D6
S315080008007047000020ED00E01CED00E004ED00E07C
S31508000810FD440008F107000800B583B000210191E6
S31508000820094B1A6B42F480021A631B6B03F48003AC
S315080008300193019B0A46442002F004F9442002F081
S3150800084039F903B05DF804FB0038024008B54FF4E7
S315080008508051024802F00AFCFEE700BF000C024085
S3150800086008B5024803F0A2FB08BD00BF9C0501209D
S3150800087008B5024802F022FA08BD00BFBC040120F0
S3150800088000B587B00023019302930393049305935D
S3150800089000930C4B1A6B42F008021A631B6B03F0A9
S315080008A008030093009B4FF47043019301230293BE
S315080008B00223049301A9044802F0EEFA07B05DF892
S315080008C004FB00BF00380240000C024008B501F0E6
S315080008D0E7FE162303604FF0FF3008BD08B54FF05A
S315080008E0FF31FFF7F3FFFEE708B5064800F034F9D5
S315080008F04FF48031044801F06BFE012001F01CFB27
S31508000900FEE700BF70450008AC04002010B502F0F1
S315080009104BF800244FF0E0231C6100F031F9FFF793
S315080009207BFF00F041FA00F07FFAFFF7A9FF00F01D
S315080009300DFB204603F0E6FB204610BD84B00246B8
S3150800094008B1002015E030230B7000234B7020E01F
S31508000950114BA3FB02C3DB089C4603EB8303A2EB04
S315080009604303303300F110026A4402F80C3C624635
S31508000970013052B10928EBD9002206E0831A0F3359
S315080009806B4413F80C3C8B5401329042F6D8002382
S315080009900B5404B0704700BFCDCCCCCC10B483B098
S315080009A0034608B1002010E030230B7000234B707B
S315080009B01BE003F00F020E4C14F802C000F1080207
S315080009C06A4402F808CC1B09013053B10728F0D94C
S315080009D0002306E0C21A07326A4412F8082CCA54E1
S315080009E001339842F6D800230B5403B010BC704765
S315080009F07C4500082DE9F04786B007468846154627
S31508000A000193044686E009EB8909303B03EB490963
S31508000A1001352B78A3F13002D2B2092AF3D9633B08
S31508000A20152B6CD8DFE803F0640B6B6B6B6B6B6B89
S31508000A306B6B6B6B6B6B6B6B566B6B6B6B44019B6E
S31508000A401A1D0192D3F800A0BAF1000F0CDB50462C
S31508000A5002A9FFF773FF02A8FFF772FCBAF1000FAD
S31508000A6005DB0023034408E0CAF10000F0E7012390
S31508000A70F8E7202204F8012B01334B4502DAE21B82
S31508000A80B242F6D3BAF1000F01DB02AB09E0E31B71
S31508000A90B342FAD22D2304F8013BF6E704F8012BFA
S31508000AA001331A78002A34D0E11BB142F6D330E07C
S31508000AB0019B1A1D019202A91868FFF76FFF02AB86
S31508000AC002E004F8012B01331A7812B3E11BB14294
S31508000AD0F7D31EE0019B1A1D01921B6802E0013341
S31508000AE004F8012B1A78A2B1E11BB142F7D310E042
S31508000AF0019B1A1D01921B7804F8013B09E0234665
S31508000B00252203F8022B2A7862701C4601E004F8B5
S31508000B10012B01352A7852B1E31B08F1FF36B3429F
S31508000B2005D2252AF3D101354FF0000971E70023D4
S31508000B302370E01B06B0BDE8F087000010B5044638
S31508000B40FFF7FEFB4FF0FF3382B22146014803F060
S31508000B505EF910BD9C0501200FB400B5A3B024AB07
S31508000B6053F8042B0193802102A8FFF743FF02A83C
S31508000B70FFF7E4FF23B05DF804EB04B0704700000C
S31508000B8000B595B03022002108A801F0C7FD002362
S31508000B900393049305930693079301931F4A116CD5
S31508000BA041F080511164126C02F080520192019A50
S31508000BB002931B4A116841F480411160126802F4DD
S31508000BC080420292029A0222089201210B91102178
S31508000BD00C910E920F9308231093322311931292BD
S31508000BE00723139308A802F04BFA88B90F23039337
S31508000BF002230493002305934FF480530693079327
S31508000C00012103A802F09CFC28B915B05DF804FB85
S31508000C10FFF71CFEEAE7FFF719FEF6E70038024081
S31508000C200070004000B583B0002100910C4B5A6C4F
S31508000C3042F480425A645A6C02F480420092009A46
S31508000C4001911A6C42F080521A641B6C03F08053AF
S31508000C500193019B072001F0E3FE03B05DF804FB56
S31508000C6000380240FEE7FEE7FEE7FEE770477047FA
S31508000C7008B501F0AFFE08BD10B5254B198889B235
S31508000C802448FFF769FF244C4FF48051204602F0B0
S31508000C90EDF94FF48041204602F0E8F901224FF4BD
S31508000CA00041204602F0DCF94FF47A7001F0A4FE08
S31508000CB000224FF40041204602F0D2F94FF47A7030
S31508000CC001F09AFE154B1B78C3B9154B1B6893B1F7
S31508000CD06B46134A12689A4210D0104B01221A70BA
S31508000CE04FF400510C4802F0C1F903F003FA0D481D
S31508000CF0FFF732FFFEE76A46094B1A60044A138873
S31508000D009BB201339BB2138003F036FA10BD00BFC5
S31508000D10AC04012090450008000C0240B9040120EB
S31508000D20B40401209C45000808B5194B198889B2F6
S31508000D301848FFF711FF4FF47A7001F05DFE4FF483
S31508000D407A7001F059FE144B1B78C3B9134B1B6814
S31508000D5093B16B46114A12689A4210D00E4B012283
S31508000D601A704FF400510E4802F080F903F0C2F9E8
S31508000D700C48FFF7F1FEFEE76A46084B1A60044A7C
S31508000D8013889BB201339BB2138003F0F5F908BDB3
S31508000D90AE040120B8450008B8040120B0040120BB
S31508000DA0000C0240C445000800B587B00023029332
S31508000DB0039304930593009301931948194A026013
S31508000DC0436083600122C2600361436180238361BB
S31508000DD002F01EFDC0B94FF48053029302A91048D1
S31508000DE002F060FD98B908210D4802F02BFD88B97C
S31508000DF020230093002301936946094802F030FE38
S31508000E0058B907B05DF804FBFFF720FDE3E7FFF7E5
S31508000E101DFDE8E7FFF71AFDEAE7FFF717FDF0E71C
S31508000E201C0501200000014000B58DB00023089381
S31508000E3009930A930B9303930493059306930793D5
S31508000E40019302931A484FF0804202604360836020
S31508000E504FF0FF32C2600361836102F0D9FCD8B952
S31508000E604FF48053089308A9114802F01BFDB0B946
S31508000E70042303930023049303A90D4802F0C6FD37
S31508000E8080B900230193029301A9094802F0E8FDFD
S31508000E9058B90DB05DF804FBFFF7D8FCE0E7FFF79B
S31508000EA0D5FCE5E7FFF7D2FCEBE7FFF7CFFCF0E769
S31508000EB05C05012010B582B0044603681F4A9342B8
S31508000EC004D0B3F1804F2CD002B010BD002300939C
S31508000ED002F59C32516C41F001015164526C02F0EA
S31508000EE001020092009A1648164A02604FF04062C4
S31508000EF042608360C36003614FF4805242614FF4DD
S31508000F0080428261C3614FF440320262436201F05B
S31508000F105BFE18B90A4B23629C63D5E7FFF796FC7C
S31508000F20F8E700230193084B1A6C42F001021A6491
S31508000F301B6C03F001030193019BC5E70000014008
S31508000F40BC040120886402400038024008B50A48FB
S31508000F500A4B03604FF4E13343600C2343610023DB
S31508000F608360C36003618361C36102F021FF00B936
S31508000F7008BDFFF76BFCFBE79C0501200044004019
S31508000F8000B589B00023039304930593069307934A
S31508000F900268154B9A4202D009B05DF804FB00219D
S31508000FA0019103F5FA331A6C42F400321A641A6C8A
S31508000FB002F400320192019A02911A6B42F0010280
S31508000FC01A631B6B03F001030293029B0C23039322
S31508000FD002230493032306930723079303A90348CD
S31508000FE001F05AFFD8E700BF004400400000024065
S31508000FF0DFF834D0002103E00C4B5B584350043132
S315080010000B480C4B42189A42F6D30B4A02E00023CF
S3150800101042F8043B094B9A42F9D303F063F801F00E
S3150800102055FBFFF773FC704700000220D448000800
S31508001030000000209004002090040020180A0120D7
S31508001040FEE7FF230360A2F13003DBB2092B02D8C7
S31508001050A2F130030360A2F14103DBB2052B02D8EB
S31508001060A2F137030360A2F16103DBB2052B01D8B5
S31508001070573A026003688B4201D2002070476FF02E
S3150800108005007047F8B584460C461D461646A2B1BB
S31508001090824212D900273B4608466146FFF7BEF949
S315080010A04FF0FF33834277EB010301D24FF0FF3055
S315080010B015B100FB16442C60F8BD15B14FF0FF338F
S315080010C02B604FF0FF30F7E7012383800023C380AE
S315080010D00360704710B5044650B1006818B1E1883E
S315080010E0890001F0D3FA0123A3800023E38023605B
S315080010F010BD70B505460C4642F21073994219D8D0
S31508001100C3888B4201D3002070BD0421204601F01C
S3150800111097FA064688B1296841B1EA889200FFF72E
S315080011206FF8E9888900286801F0B0FAEC802E602B
S315080011300020E9E76FF00F00E6E76FF00F00E3E73E
S31508001140F8B506460D46884234D0CB880BB1013B2C
S315080011500CE0C2880AB900272AE00123838092009E
S315080011600021006801F0DAFAF5E7013B23B12A68A5
S3150800117052F82320002AF8D05C1CB5F90430B38055
S31508001180F288A24206D221463046FFF7B2FF07464A
S3150800119048B10DE03068121B9200002100EB840074
S315080011A001F0BCFA0027A20029683068FFF728F882
S315080011B03846F8BD0027FBE770B505460C46012101
S315080011C0FFF797FF064608B1304670BDEA889200D9
S315080011D00021286801F0A2FA2B68002C08DA62427E
S315080011E01A60E40FC4EBC43464000134AC80EBE746
S315080011F02246F5E7C388B1EB431F0AD203684A09BA
S3150800120053F8220001F01F0120FA01F101F0010054
S31508001210704700207047002300E00133C2889A42D5
S315080012200BD9026852F82320002AF6D092FAA2F2C5
S31508001230B2FA82F202EB431070470020704708B5F5
S31508001240C188006800F0F9FE08BD38B504460D46A9
S31508001250FFF7F5FF2844E388B0EB431F09D910F0E0
S315080012601F0118BF012101EB50112046FFF741FF6E
S3150800127028B92A46E188206800F033FF002038BDE7
S3150800128008B50A46C18809B9002008BD006800F0FB
S31508001290E9FEF9E710B4C38843B1046803F1804254
S315080012A0013A54F822200AB9013BF5E7CA884AB13F
S315080012B00C6802F1804C0CF1FF3C54F82C400CB938
S315080012C0013AF4E7934212D814D373B1046803F1D0
S315080012D08042013A54F82240D1F800C05CF8222036
S315080012E094420AD80BD3013BEFE7002000E0012027
S315080012F010BC70474FF0FF30FAE70120F8E74FF0CF
S31508001300FF30F5E710B5C38843B1046803F180429E
S31508001310013A54F822200AB9013BF5E7CA884AB1CE
S315080013200C6802F1804C0CF1FF3C54F82C400CB9C7
S31508001330013AF4E703B992B3934222D8934223D3EE
S31508001340B0F904C0BCF1000F03DDB1F90420002A8E
S3150800135027DBB1F90420002A02DDBCF1000F22DBED
S31508001360DBB1046803F18042013A54F82240D1F80F
S3150800137000E05EF8222094420AD894420AD3013B40
S31508001380EEE7B0F9040010BDB1F904004042FAE7EF
S315080013906046F8E7CCF10000F5E70020F3E7002007
S315080013A0F1E70120EFE74FF0FF30ECE700B585B035
S315080013B0002913DA4B420193C90FC1EBC131490029
S315080013C00131ADF80C100123ADF80E3001AB0293D4
S315080013D002A9FFF797FF05B05DF804FB0B46EAE79D
S315080013E02DE9F04106461546904213D0B14204D085
S315080013F03046FFF7A5FE074688B90123B380EC8877
S315080014005CB1296804F18043013B51F8233023B9C4
S31508001410013CF5E70D460146E8E71CB900273846C2
S31508001420BDE8F08121463046FFF763FE07460028EF
S31508001430F5D1D6F8008023462A684146404600F092
S315080014408AFE054608EB840208E013682B4442F836
S31508001450043BAB422CBF002501250134002DDED00C
S31508001460F388A342F1D8611C3046FFF742FE0746CF
S315080014700028D4D1326802EB8402E6E72DE9F04170
S3150800148006460F461546D48800E0013C3CB104F1F7
S315080014908043013B2A6852F82330002BF5D0F9889F
S315080014A0A1423AD33046FFF724FE8046E0B9FA88CF
S315080014B0A2420BD9B74209D030683968121B92008C
S315080014C001EB840100EB8400FEF79AFEF288F888A7
S315080014D082420CD823462A683968306800F055FEDF
S315080014E0024668B90123B3804046BDE8F0813368F7
S315080014F0121A9200002103EB800001F00FF9E9E7C8
S31508001500306800EB8400F3881B1B014600F0CEFE12
S315080015100028E7D06FF00908E6E76FF00908E3E767
S315080015202DE9F04106460C461546B1F90470B2F9A4
S3150800153004C007FB0CFC03FB0CFCBCF1000F1BDA18
S3150800154011462046FFF7A6FEB0F100080BDB2A4637
S3150800155021463046FFF792FF90B9B8F1000F00D147
S315080015600127B7800CE0224629463046FFF786FF5A
S3150800157030B97F42B78003E0FFF732FF00B9B78082
S31508001580BDE8F08108B50123FFF7CAFF08BD08B515
S315080015904FF0FF33FFF7C4FF08BD00B585B0002A3A
S315080015A013DA53420193D20FC2EBC2325200013210
S315080015B0ADF80C200123ADF80E3001AB029302AA58
S315080015C0FFF7E0FF05B05DF804FB1346EAE72DE9EF
S315080015D0F04182B006460D461746CC8800E0013C2D
S315080015E03CB104F18043013B2A6852F82330002BB2
S315080015F0F5D007B144B900213046FFF7DDFD804636
S31508001600404602B0BDE8F081611C3046FFF771FD27
S3150800161080460028F4D129463046FFF791FD8046DA
S315080016200028EDD1013F009723462A68F1883068E3
S3150800163000F0C8FDE4E72DE9F04784B007460C46FC
S3150800164091468B1E0E2B00F28C8001A8FFF73CFDFD
S3150800165099F800300BB32D2B24D04FF0010A4846D9
S31508001660FEF76EFE0546102C48D1B0F1804F7BD2AE
S315080016708200C0F3DA0312F01F0F14BF0121002104
S3150800168019443846FFF735FD064680B101A8FFF72D
S3150800169021FD304604B0BDE8F0873846FFF71AFD4D
S315080016A00026F6E709F101094FF0FF3AD7E70021CE
S315080016B03846FFF781FD06460028E7D14FF00008B7
S315080016C0002D42D0013D19F80520214603A8FFF751
S315080016D0B8FC06460028D9D139684FEAD8004FEA3F
S315080016E0880202F01C02039B03FA02F251F820302A
S315080016F0134341F8203008F10108E1E70021384694
S31508001700FFF75AFD06460028C0D14FF00008A84545
S315080017101BD219F80820214603A8FFF792FC0646B3
S315080017200028B3D12246394601A8FFF750FF0646DE
S315080017300028ABD1039A01A93846FFF72EFF0646C3
S315080017400028A3D108F10108E1E7BAF1000F9DDAF4
S315080017503846FFF774FD002898D04FF6FF73BB8014
S3150800176094E76FF0030694E76FF0030691E72DE917
S31508001770F04F95B006460F4615461C4600211846FA
S31508001780FFF714FE002800F0B28112A8FFF79CFCB0
S3150800179010A8FFF799FC0EA8FFF796FC0CA8FFF710
S315080017A093FC0123ADF82C300323ADF82E3007AB9C
S315080017B00A9321462846FFF76DFD002810DA2EB158
S315080017C000213046FFF7F8FC804678B92FB1294644
S315080017D03846FFF7B5FC804640B94FF0000815E0DB
S315080017E0294612A8FFF7ACFC804698B112A8FFF765
S315080017F071FC10A8FFF76EFC0EA8FFF76BFC0CA88F
S31508001800FFF768FC0C2107A800F034FF404615B026
S31508001810BDE8F08F214610A8FFF792FC8046002805
S31508001820E4D10123ADF84430ADF84C30E9880231F3
S315080018300EA8FFF75EFC80460028D7D100210EA827
S31508001840FFF7BAFC80460028D0D1E98802310CA8F7
S31508001850FFF74FFC80460028C8D110A8FFF7EFFC19
S3150800186000F01F031E2B11D8C3F11F0399460193DD
S31508001870194612A8FFF7E9FC80460028B6D1494662
S3150800188010A8FFF7E2FC804610B1AFE700230193EA
S31508001890BDF84E9009F1FF330393BDF84630029325
S315080018A003F1FF3BA9EB03094FEA491A514610A871
S315080018B0FFF7CBFC8046002898D110A912A8FFF79D
S315080018C021FD00280EDB0E9A52F82930013342F822
S315080018D0293010AA12A90846FFF759FE80460028A3
S315080018E0EBD083E7514610A8FFF7CAFC80460028CC
S315080018F07FF47CAFDDF808A002960497039F039552
S315080019005D460594AF4240F2BF801299BC0051F87B
S315080019102700AE00109B53F8252090422DD37B1B41
S3150800192003F18043013B0E9A4FF0FF3142F8231032
S31508001930012F32D907F18043023B129A52F823202D
S315080019400A9B1A605FB307F18043013B129A52F86B
S3150800195023200A9B5A60129A12599A600E9AA7EB8C
S31508001960050B0BF1804909F1FF394FEA890452F852
S315080019702930013342F829302AE06FF0404807EB56
S31508001980080CDDF838907B1B9844002351F82C107E
S31508001990FFF778FB49F82800CAE70022D0E73A465D
S315080019A0D7E72A460C9B1A60109B9A590C9B5A60DB
S315080019B00E9B1A590CA90846FFF709FE804600280F
S315080019C07FF414AF0AA90CA8FFF79CFC002814DDC5
S315080019D00E9A1359013B135100210CA8FFF7ECFB93
S315080019E0804600287FF402AF002DDAD00AF1804342
S315080019F0023B109A52F82320D4E70E9B53F829206D
S31508001A0010A90CA8FFF7E3FD804600287FF4EEAE88
S31508001A100BF1FF34640121460CA8FFF716FC80463B
S31508001A2000287FF4E3AE0CAA12A90846FFF7AFFD1B
S31508001A30804600287FF4DAAE002112A8FFF7B6FC2C
S31508001A40002801DB013F5DE710A90CA8FFF778FB2A
S31508001A50804600287FF4CAAE21460CA8FFF7F5FB9E
S31508001A60804600287FF4C2AE0CAA12A90846FFF7E2
S31508001A7089FD804600287FF4B9AE0E9A52F82930BF
S31508001A80013B42F82930DDE7029E049F039D059C31
S31508001A9066B10EA93046FFF753FB804600287FF44F
S31508001AA0A5AEAB88A28813FB02F3B380002F3FF4E0
S31508001AB09DAE019912A8FFF7E3FB804600287FF444
S31508001AC095AEB5F90430ADF84C3012A93846FFF793
S31508001AD037FB804600287FF489AE00213846FFF799
S31508001AE065FC00287FF482AE0123BB807EE66FF09A
S31508001AF00B088BE670B504460E46154600211046BF
S31508001B00FFF754FC002826DB2B46324621460020E8
S31508001B10FFF72DFE064668B900212046FFF746FC6A
S31508001B20002809DA2A4621462046FFF72BFD0646F5
S31508001B300028F1D0304670BD29462046FFF7E2FB63
S31508001B400028F7DB2A4621462046FFF720FD0646F1
S31508001B500028F1D0EEE76FF00906EBE7F0B585B09F
S31508001B6005460F46164602A8FFF7AEFA6846FFF77F
S31508001B70ABFA394602A8FFF7E3FA044640B102A8D1
S31508001B80FFF7A8FA6846FFF7A5FA204605B0F0BDA4
S31508001B9031466846FFF7D4FA04460028EFD102A872
S31508001BA0FFF739FB04466846FFF735FB064620B9BA
S31508001BB000216846FFF71EFB40B1B44200D826460E
S31508001BC00123ADF80430ADF80C3014E03946284648
S31508001BD0FFF7B6FA0446D2E702AA69466846FFF74F
S31508001BE04DFC04460028CAD101216846FFF748FB88
S31508001BF004460028C3D1002102A8FFF7D7FB48B343
S31508001C0002A8FFF708FB014602A8FFF739FB0446BE
S31508001C100028B4D16846FFF7FEFA01466846FFF782
S31508001C202FFB04460028AAD1694602A8FFF76AFBDB
S31508001C300028D1DB6A4602A90846FFF71FFC0446BE
S31508001C4000289CD1012102A8FFF71AFB04460028A8
S31508001C50D1D094E731466846FFF7F7FA04460028DC
S31508001C608DD169462846FFF76BFA044687E7F0B533
S31508001C7093B007460D46144601211046FFF796FB1A
S31508001C80002840F356810EA8FFF71EFA0CA8FFF7A6
S31508001C901BFA0AA8FFF718FA08A8FFF715FA10A8FA
S31508001CA0FFF712FA06A8FFF70FFA04A8FFF70CFACF
S31508001CB002A8FFF709FA6846FFF706FA22462946F8
S31508001CC010A8FFF74BFF064630B9012110A8FFF709
S31508001CD06DFBF8B16FF00D060EA8FFF7FBF90CA81F
S31508001CE0FFF7F8F90AA8FFF7F5F908A8FFF7F2F9D8
S31508001CF010A8FFF7EFF906A8FFF7ECF904A8FFF715
S31508001D00E9F902A8FFF7E6F96846FFF7E3F930466E
S31508001D1013B0F0BD224629460EA8FFF7EBFE06468D
S31508001D200028D9D10EA90CA8FFF70AFA06460028FA
S31508001D30D2D1214606A8FFF703FA06460028CBD1DA
S31508001D40214604A8FFF7FCF906460028C4D101215C
S31508001D500AA8FFF731FA06460028BDD1002108A8CF
S31508001D60FFF72AFA06460028B6D1002102A8FFF78F
S31508001D7023FA06460028AFD101216846FFF71CFA68
S31508001D800646F0B1A8E706AA0AA90846FFF7FAFB2D
S31508001D9006460028A0D10EAA08A90846FFF7F7FBB1
S31508001DA00646002898D101210AA8FFF769FA0646CF
S31508001DB0002891D1012108A8FFF762FA06460028F3
S31508001DC08AD10C9B1B6813F0010F34D101210CA892
S31508001DD0FFF756FA064600287FF47EAF0A9B1B6873
S31508001DE013F0010FCFD1089B1B6813F0010FDAD04F
S31508001DF0C9E706AA02A90846FFF7C4FB0646002853
S31508001E007FF46AAF0EAA69466846FFF7C0FB064626
S31508001E1000287FF461AF012102A8FFF731FA0646D0
S31508001E2000287FF459AF01216846FFF729FA0646CC
S31508001E3000287FF451AF049B1B6813F0010F12D1E1
S31508001E40012104A8FFF71CFA064600287FF444AFD0
S31508001E50029B1B6813F0010FCBD1009B1B6813F084
S31508001E60010FD8D0C5E704A90CA8FFF74BFA00283C
S31508001E702FDB04AA0CA90846FFF789FB06460028AB
S31508001E807FF42AAF02AA0AA90846FFF780FB06468E
S31508001E9000287FF421AF6A4608A90846FFF777FBB2
S31508001EA0064600287FF418AF00210CA8FFF77EFA33
S31508001EB0002886D1002102A8FFF778FA002823DA3D
S31508001EC0224602A90846FFF75DFB06460028F1D020
S31508001ED002E70CAA04A90846FFF759FB064600289C
S31508001EE07FF4FAAE0AAA02A90846FFF750FB06468F
S31508001EF000287FF4F1AE08AA69466846FFF747FB53
S31508001F0006460028D0D0E7E6214602A8FFF7FAF9E8
S31508001F10002808DB224602A90846FFF738FB0646D2
S31508001F200028F1D0D8E602A93846FFF709F906468F
S31508001F30D2E66FF00306EAE630B589B0044606A88D
S31508001F40FFF7C2F804A8FFF7BFF802A8FFF7BCF826
S31508001F506846FFF7B9F82E4A10210DEB0100FFF786
S31508001F606AFB054698B10DB1002C47D106A8FFF7C4
S31508001F70B1F804A8FFF7AEF802A8FFF7ABF8684671
S31508001F80FFF7A8F8002C3ED1284609B030BD214AF3
S31508001F90102102A8FFF74FFB05460028E3D11E4A89
S31508001FA0102106A8FFF747FB05460028DBD11B4A88
S31508001FB010216846FFF73FFB05460028D3D102AA41
S31508001FC004A906A8FFF753FE05460028CBD154B945
S31508001FD0694606A8FFF796F948B9002CC3D01048F9
S31508001FE0FEF7BAFDBFE70F48FEF7B6FDF0E70CB9F6
S31508001FF00125B9E70C48FEF7AFFDF9E729460B4876
S31508002000FEF7AAFDB2E70A48FEF7A6FDBCE700BF41
S31508002010884600080C47000870470008D44700089F
S3150800202068480008384800085C48000874480008F2
S3150800203098480008B0FA80F0704710B50346013991
S3150800204000E0013900290BDB0C4653F82100002873
S31508002050F7D0FFF7EFFFC0F1200000EB441000E0D7
S31508002060002010BD38B5540902F01F05B1EB521F08
S3150800207007D38C4203D01F2A12D87DBB38BD002D4A
S31508002080F9D08A00002100F049FBF7E71A1950F841
S31508002090222040F8232001330A1B9A42F6D805E08D
S315080020A00023F9E7002240F8232001338B42F9D3B5
S315080020B0E3E701F18043013B50F82340C5F1200CCA
S315080020C024FA05F240F8232042EA0E0240F82320BB
S315080020D0013904FA0CFE0029EBD1CFE74FF0000EC8
S315080020E0F9E730B54FEA521C02F01F051F2A10D82F
S315080020F075BB30BDA3EB0C026FF0404403EB040E36
S31508002100224450F8222040F82E20013B6345F1D89E
S3150800211008E00B46FAE703F18042013A002440F84A
S315080021202240013B002BF6D1E2E750F82C40C5F1DE
S31508002130200204FA05F340F82C3043EA0E0340F86F
S315080021402C300CF1010C24FA02FE8C45EDD3D0E7B5
S315080021504FF0000EF9E730B505464FF0000C604623
S3150800216010E051F82C4020182CBF4FF0010E4FF00C
S31508002170000E52F82C4024184EF1000045F82C4069
S315080021800CF1010C9C45ECD330BDF0B507464FF079
S31508002190000C604613E051F82C50A5EB000E52F8DF
S315080021A02C40744594BF0026012685422CBF304634
S315080021B0701CAEEB040447F82C400CF1010C9C454E
S315080021C0E9D3F0BD2DE9F0418446069C994200D238
S315080021D00B46CD1ADE0803F00701002042E06346ED
S315080021E052F8086B53F808CB52F8047C53F8048C61
S315080021F0E4FB66C0E4FB678043F808CC43F8048C2C
S3150800220052F8086B53F808CB52F8047C53F8048C40
S31508002210E4FB66C0E4FB678043F808CC43F8048C0B
S3150800222052F8086B53F808CB52F8047C53F8048C20
S31508002230E4FB66C0E4FB678043F808CC43F8048CEB
S3150800224052F8086B53F808CB52F8047C53F8048C00
S31508002250E4FB66C0E4FB678043F808CC43F8048CCB
S315080022609C46764606F1FF3E002EB8D10AE0634644
S3150800227052F8041BD3F800C0E4FB61C043F804CB52
S315080022809C4631464E1E0029F1D109E0DCF80030A3
S3150800229003444CF8043B83422CBF0020012015461A
S315080022A06A1E002DF2D1BDE8F08100BF30B5864622
S315080022B010464FF0000C0AE051F82C502C1AA54293
S315080022C02CBF002001204EF82C400CF1010C9C4537
S315080022D0F2D330BD0268124B9A4215D1C269A3F1F6
S315080022E01023A3F1EF139A4210D18368012B0FD85C
S315080022F0C36813B1026993420CD0436963B182691A
S3150800230093420BD000207047012070470120704788
S315080023100120704701207047002070470120704750
S3150800232055AA00FF70B5114B9D68B5B12846FFF751
S31508002330D1FF064698B9EB6813B10126304670BD41
S315080023402C69002CFAD02046FFF7C4FF48B9E36889
S31508002350AB4208D125462469F3E70126EEE70126B4
S31508002360ECE70126EAE70126E8E700BFFC090120B9
S3150800237038B50546002866D0464B1B68002B62D048
S31508002380444A9268002A5ED083425DD8414A526820
S315080023901344834258D9A0F120042046FFF79AFF38
S315080023A0002854D155F8183C012B53D1002345F881
S315080023B0183C55F8143CCBB19A68002A4DD155F80B
S315080023C01C2C59680A4420325A6055F8143C55F8B2
S315080023D0102C1A6155F8145C2B6903B1DD602022B4
S315080023E00021204600F09AF923462C46256925B394
S315080023F0AA6812BB6B6862681344203363602B6952
S31508002400236163695BB3002B2DD0A2699A61A36926
S315080024100BB162695A616B696361AA69A26133B3D8
S315080024209C61A36903B15C61236903B1DC60202266
S315080024300021284600F072F92B46DBB1154B1B69C3
S3150800244013F0020F1ED138BD012000F02FF901202C
S3150800245000F02CF9012000F029F90023C6E7A2694B
S31508002460002AD0D1D7E7A2690A4BDA60CFE7094B31
S31508002470DC60D6E7074BDB68A36103B15C61054BFB
S31508002480DC60DBE7FFF74EFF0028DCD0012000F018
S315080024900DF900BFFC09012070B54A4BDC681D68C0
S315080024A0002D00F089809D68002D00F0858001FBD5
S315080024B000F600287BD000297BD0B6FBF0F08842D6
S315080024C079D116F1040F79D816F0030F2DD026F01E
S315080024D00302043200E0A46914B163689342FAD394
S315080024E0002C6DD0A36813BB6168891A232928D8E4
S315080024F00123A3606369EBB1A2699A61A3690BB171
S3150800250062695A6100236361A3612E4B1B6913F04C
S31508002510010F02D0FFF706FF80B904F12005324605
S315080025200021284600F0FAF846E03246D4E70120B2
S3150800253000F0BCF8A269234BDA60DFE7012000F05F
S31508002540B5F802F120002318203959600021996056
S31508002550DC60216919611C4D25501C48D86101B100
S31508002560CB6061695961A0699861D1B18B6199693C
S3150800257001B14B610121A16062602361002363619F
S31508002580A361104B1B6913F0010F02D0FFF7CAFEB7
S3150800259050B904F1200532460021284600F0BEF85D
S315080025A00AE00849CB60E2E7012000F07FF8002541
S315080025B002E0002500E00025284670BD0025FBE75F
S315080025C02546F9E7FC09012055AA00FF669911EE90
S315080025D038B505460C4614220021134800F09EF82B
S315080025E01249134800F03CF8232C1CD915F00303B4
S315080025F004D01C44043CC3F104031D4422460021B4
S31508002600284600F08BF8084B1D605C609D60203CF6
S315080026106C609A68074911609A68A1F11021A1F1C6
S31508002620EF11D161DA6038BDFC0901207123000879
S315080026309924000855AA00FF00207047704700003B
S3150800264008B5024B1B68984708BD00BF4800002024
S3150800265008B5024B1B68984708BD00BF4C00002010
S31508002660024B1860024B1960002070474800002092
S315080026704C00002010B504460A4619B1024B1B68E7
S315080026800021984710BD00BF5000002010B5044631
S3150800269008B1FFF7EFFF2046FFF7DAFF10BD00008D
S315080026A0014B1868704700BF5400002008B5002188
S315080026B0044600F08FF8044B1868C36B03B19847BB
S315080026C02046FEF70BF900BF9C48000870B50D4E72
S315080026D00D4D761BB61006D0002455F8043B013480
S315080026E09847A642F9D1094E094D761B01F020FFFD
S315080026F0B61006D0002455F8043B01349847A64284
S31508002700F9D170BDC8480008C8480008D048000874
S31508002710C8480008704700BF704700BF830730B538
S3150800272048D0541E002A3FD0CAB2034601E0013CF5
S315080027303AD303F8012B9D07F9D1032C2DD9CDB235
S3150800274045EA05250F2C45EA054536D9A4F11002B8
S3150800275022F00F0C03F1200EE6444FEA121C03F197
S31508002760100242E9045542E9025510327245F8D181
S315080027700CF1010214F00C0F03EB021204F00F0C1B
S3150800278013D0ACF1040323F003030433134442F8D3
S31508002790045B9342FBD10CF003042CB1CAB21C446F
S315080027A003F8012B9C42FBD130BD64461346002C2E
S315080027B0F4D1F9E703461446BFE71A46A446E0E70C
S315080027C0024B13B1024800F067B8704700000000DA
S315080027D0A52800082DE9F04F2D4B83B083461868CD
S315080027E0CDF804B00F46FFF795FF2A4BD3F80080C3
S315080027F0D8F848619EB14FF001094FF0000A746895
S31508002800651E0CD4013406EB84047FB1D4F800317C
S31508002810BB420BD0013D6B1CA4F10404F5D11C4B43
S31508002820186803B0BDE8F04FFFF776BF73682268F3
S31508002830013BAB420CBF7560C4F800A0002AE9D082
S31508002840D6F88801D6F804B009FA05F101420BD189
S31508002850904772685A4512D1D8F84831B342D9D050
S315080028601E46002ECBD1DAE7D6F88C0101420BD1F1
S31508002870D4F880100198904772685A45ECD0D8F879
S315080028804861002EBBD1CAE7D4F880009047E0E73C
S31508002890800400209C480008002301461A46184672
S315080028A000F016B838B5084B084D5B1B9C1007D0CE
S315080028B0043B1D44013C55F804399847002CF9D1CE
S315080028C0BDE8384001F03ABED4480008D0480008B0
S315080028D02DE9F047DFF87CA00646DAF800009846AE
S315080028E00F469146FFF716FF1B4B1B68D3F8484166
S315080028F024B365681F2D26DC5EB96B1C0235DAF831
S315080029000000636044F82570FFF706FF0020BDE865
S31508002910F08704EB85010123C1F88890D4F8882153
S31508002920AB401A43022EC4F88821C1F80881E4D1C5
S31508002930D4F88C211343C4F88C31DEE703F5A6746A
S31508002940C3F84841D5E7DAF80000FFF7E5FE4FF08F
S31508002950FF30DCE7800400209C48000810B50446D8
S315080029600E4B18784FF47A73B3FBF0F30C4A1068E1
S31508002970B0FBF3F000F0ACF868B90F2C01D90120D0
S315080029800AE0002221464FF0FF3000F05BF8054BC5
S315080029901C60002000E0012010BD00BF8404002058
S315080029A08C0400208804002008B5094B1A6842F4F4
S315080029B000721A601A6842F480621A60032000F0F6
S315080029C02FF80F20FFF7CAFFFEF72CF9002008BDE5
S315080029D0003C0240034A1168034B1B780B44136002
S315080029E0704700BF140A012084040020014B1868B0
S315080029F0704700BF140A012038B50446FFF7F6FFF2
S31508002A000546B4F1FF3F02D0044B1B781C44FFF780
S31508002A10EDFF401BA042FAD338BD00BF8404002056
S31508002A20074AD36823F4E0631B041B0C000200F476
S31508002A30E060034343F0BF6343F40033D360704759
S31508002A4000ED00E000B5194BDB68C3F30223C3F1C0
S31508002A50070CBCF1040F28BF4FF0040C03F1040E59
S31508002A60BEF1060F18D9033B4FF0FF3E0EFA0CFCD9
S31508002A7021EA0C0199400EFA03F322EA03031943EB
S31508002A8000280BDB0901C9B200F1604000F561407E
S31508002A9080F800135DF804FB0023E5E700F00F005B
S31508002AA00901C9B2024B1954F4E700BF00ED00E072
S31508002AB014ED00E0002807DB00F01F02400901239F
S31508002AC09340024A42F82030704700BF00E100E018
S31508002AD00138B0F1807F0BD24FF0E0235861054AE8
S31508002AE0F02182F823100020986107221A617047A6
S31508002AF00120704700ED00E010B40368D9B2103920
S31508002B000B4AA2FB014212090A4CA25CC2655F2964
S31508002B1008D923F47F7323F0030304338365806D98
S31508002B2010BC704723F47F7323F003038365F6E72D
S31508002B30ABAAAAAAA0480008836A826992B9012B9F
S31508002B400AD0022B02D00BB100207047C36A13F0DB
S31508002B50807F28D100207047C36AB3F1C07F24D094
S31508002B6000207047B2F5005F09D0022B25D9032B48
S31508002B7025D1C36A13F0807F23D100207047032B29
S31508002B8003D8DFE803F01404140A00207047C36A68
S31508002B9013F0807F0DD100207047C36AB3F1C07F60
S31508002BA009D0002070470120704701207047012096
S31508002BB070470120704701207047012070470020A8
S31508002BC0704701207047000070B50446FFF70EFFF6
S31508002BD00546002C5AD0002384F83430022384F8A2
S31508002BE035302268136823F00103136023681A68D6
S31508002BF012F0010F0AD0FFF7F9FE431B052BF5D992
S31508002C0020236365032084F8350070BD1A682048C0
S31508002C1010406168A2680A43E1680A4321690A43C9
S31508002C2061690A43A1690A43E1690A43216A0A43B9
S31508002C300243616A04291ED01A602668756925F060
S31508002C400705636A1D43042B07D1A36A1D43E36A7C
S31508002C501BB12046FFF770FF90B975612046FFF754
S31508002C604BFFE26D3F23934083600020606501239C
S31508002C7084F83530C9E7E16A206B01430A43DBE78C
S31508002C8040236365012084F83500BEE70120BCE7D0
S31508002C903F8010F090F83530DBB2022B03D080234A
S31508002CA0436501207047052380F8353002681368AC
S31508002CB023F001031360002070470000F0B583B0CD
S31508002CC0044600230193724B1D68724BA3FB05351E
S31508002CD0AD0A876D3E68C26D08239340334210D013
S31508002CE003681A6812F0040F0BD01A6822F004025F
S31508002CF01A60C26D08239340BB60436D43F001031D
S31508002D004365E26D01239340334209D02268526934
S31508002D1012F0800F04D0BB60636D43F00203636555
S31508002D20E26D04239340334209D02268126812F0F8
S31508002D30020F04D0BB60636D43F004036365E26D64
S31508002D4010239340334224D02268126812F0080FE9
S31508002D501FD0BB6023681A6812F4802F0DD01B6839
S31508002D6013F4002F04D1236C9BB12046984710E03A
S31508002D70A36C73B1204698470BE01A6812F4807F5B
S31508002D8003D11A6822F008021A60236C0BB1204698
S31508002D909847E26D20239340334255D02268126843
S31508002DA012F0100F50D0BB6094F83530DBB2052B0B
S31508002DB00ED023681A6812F4802F33D01B6813F4D8
S31508002DC0002F2AD1636C002B3ED0204698473BE063
S31508002DD02268136823F0160313602268536923F0E8
S31508002DE080035361236CA3B12268136823F0080398
S31508002DF01360E26D3F239340BB60002384F83430B0
S31508002E00012384F83530236D002B3FD020469847A0
S31508002E103CE0A36C002BE7D1EBE7E36BA3B12046BC
S31508002E20984711E01A6812F4807F09D11A6822F0CF
S31508002E3010021A60002384F83430012384F83530F0
S31508002E40E36B0BB120469847636DFBB1636D13F0D6
S31508002E50010F17D0052384F835302268136823F04C
S31508002E6001031360019B01330193AB4204D8236825
S31508002E701B6813F0010FF5D1002384F834300123C1
S31508002E8084F83530E36C0BB12046984703B0F0BDA3
S31508002E908C040020B5814E1BF0B583B0002337E0C3
S31508002EA0072200E00022AA4032430234684D45F862
S31508002EB02420684A14686FEA0C0224EA0C054E6856
S31508002EC016F4803F01D04CEA0405624C256064681C
S31508002ED002EA04054E6816F4003F01D04CEA0405E0
S31508002EE05C4C6560A46802EA04054E6816F4801F07
S31508002EF001D04CEA0405574CA560E46822404D68A9
S31508002F0015F4001F01D04CEA0402524CE26001336A
S31508002F100F2B00F29A8001229A400C6804EA020CF0
S31508002F2032EA0404F3D14C68651E012D03D9112C2D
S31508002F3001D0122C12D185685E000324B44025EA1C
S31508002F400405CC68B4402C438460456825EA02052C
S31508002F504C68C4F300129A402A434260C5684FEA97
S31508002F60430E032404FA0EF4E24325EA04058C68AA
S31508002F7004FA0EF42C43C4604C68022C01D0122CBF
S31508002F800FD1DD08083550F8257003F00704A600B0
S31508002F900F24B44027EA04070C69B4403C4340F8C0
S31508002FA02540046814404A6802F0030202FA0EF249
S31508002FB0224302604A6812F0805FA8D0002201927C
S31508002FC0254A546C44F480445464526C02F480429A
S31508002FD00192019A9C08A51C1D4A52F8256003F027
S31508002FE0030295000F22AA4026EA02061B4A9042CF
S31508002FF03FF458AF02F5806290421AD002F580621B
S31508003000904218D002F58062904216D002F580628E
S31508003010904214D002F58062904212D002F5806286
S31508003020904210D002F5806290423FF439AF0822F0
S3150800303039E7012237E7022235E7032233E704227C
S3150800304031E705222FE706222DE703B0F0BD00BFC2
S3150800305000380140003C01400038024000000240B0
S315080030600AB181617047090481617047436931EA91
S31508003070030301D08161704709048161704700002C
S3150800308070B582B00446002800F0D781036813F0B3
S31508003090010F3BD09F4B9B6803F00C03042B2CD0ED
S315080030A09C4B9B6803F00C03082B21D06368B3F58F
S315080030B0803F4FD0B3F5A02F52D0964B1A6822F412
S315080030C080321A601A6822F480221A606368002B1C
S315080030D050D0FFF78BFC05468E4B1B6813F4003F58
S315080030E014D1FFF783FC401B6428F5D90320A5E11A
S315080030F0884B5B6813F4800FD8D0864B1B6813F493
S31508003100003F03D06368002B00F09A81236813F010
S31508003110020F54D07F4B9B6813F00C0F3ED07D4BAB
S315080031209B6803F00C03082B33D0E368002B68D0A8
S31508003130794B01221A60FFF759FC0546754B1B6847
S3150800314013F0020F54D1FFF751FC401B0228F5D9A2
S31508003150032073E16F4A136843F480331360B5E7BD
S315080031606C4B1A6842F480221A601A6842F480325C
S315080031701A60ABE7FFF73AFC0546664B1B6813F483
S31508003180003FC3D0FFF732FC401B6428F5D9032063
S3150800319054E1604B5B6813F4800FC6D15D4B1B6826
S315080031A013F0020F03D0E368012B40F04B81594A14
S315080031B0136823F0F803216943EAC10313602368FF
S315080031C013F0080F42D063696BB3534B0122C3F85F
S315080031D0802EFFF70BFC05464E4B5B6F13F0020F74
S315080031E034D1FFF703FC401B0228F5D9032025E15B
S315080031F0484A136823F0F803216943EAC1031360B8
S31508003200DDE7454B00221A60FFF7F0FB0546414B08
S315080032101B6813F0020FD2D0FFF7E8FB401B022809
S31508003220F5D903200AE13C4B0022C3F8802EFFF7AC
S31508003230DDFB0546374B5B6F13F0020F06D0FFF731
S31508003240D5FB401B0228F5D90320F7E0236813F0C5
S31508003250040F77D02F4B1B6C13F0805F33D10023FC
S3150800326001932C4B1A6C42F080521A641B6C03F0C3
S3150800327080530193019B0125284B1B6813F4807F1B
S3150800328023D0A368012B34D0052B38D0214B1A6FD5
S3150800329022F001021A671A6F22F004021A67A3685D
S315080032A0002B3DD0FFF7A2FB06461A4B1B6F13F007
S315080032B0020F46D1FFF79AFB801B41F288339842EA
S315080032C0F3D90320BAE00025D6E7144A136843F475
S315080032D080731360FFF78AFB0646104B1B6813F4CE
S315080032E0807FCED1FFF782FB801B0228F5D9032009
S315080032F0A4E0084A136F43F001031367CFE7054BB1
S315080033001A6F42F004021A671A6F42F001021A672E
S31508003310C5E700BF00380240000047420070004081
S31508003320FFF764FB06464F4B1B6F13F0020F08D0DE
S31508003330FFF75CFB801B41F288339842F3D90320E0
S315080033407CE0E5B9A369002B7ED0464A926802F074
S315080033500C02082A51D0022B17D0434B00221A66BA
S31508003360FFF744FB04463F4B1B6813F0007F42D02F
S31508003370FFF73CFB001B0228F5D903205EE0394A1B
S31508003380136C23F080531364DCE7374B00221A666C
S31508003390FFF72CFB0546334B1B6813F0007F06D05E
S315080033A0FFF724FB401B0228F5D9032046E0E36912
S315080033B0226A1343626A43EA8213A26A5208013AEE
S315080033C043EA0243E26A43EA0263264A5360264B0B
S315080033D001221A66FFF70AFB0446224B1B6813F004
S315080033E0007F06D1FFF702FB001B0228F5D9032050
S315080033F024E0002022E0002020E0012B26D0194BF3
S315080034005B6803F48001E269914221D103F03F022F
S31508003410216A8A421ED1616A47F6C0721A408A42F8
S315080034201AD103F44032A16A8A4217D103F07063B5
S31508003430E26A934214D1002000E0012002B070BD78
S315080034400120FBE70120F9E70020F7E70120F5E76F
S315080034500120F3E70120F1E70120EFE70120EDE77E
S315080034600120EBE7003802400000474208B5314B1F
S315080034709B6803F00C03042B57D0082B57D12D4B10
S315080034805A6802F03F025B6813F4800F2AD0294B72
S315080034905968C1F3881C4FEA4C11B1EB0C006EEB6E
S315080034A00E0E4FEA8E1343EA90638101091A63EB05
S315080034B00E03DB0043EA5173C90011EB0C0C43F110
S315080034C00003590200234FEA4C2041EADC51FCF77D
S315080034D0A5FF184B5B68C3F3014301335B00B0FBE0
S315080034E0F3F025E0134B5968C1F3881C4FEA4C11D9
S315080034F0B1EB0C006EEB0E0E4FEA8E1343EA9063A7
S315080035008101091A63EB0E03DB0043EA5173C90014
S3150800351011EB0C0C43F10003990200234FEA8C20AF
S3150800352041EA9C51FCF77AFFD3E7034800E00348D9
S3150800353008BD00BF0038024000127A000024F400DB
S3150800354070B50D460446002800F098804F4B1B685E
S3150800355003F00F038B4208D2CBB24C4A13701368A0
S3150800356003F00F038B4240F08B80236813F0020FA1
S3150800357017D013F0040F04D0454A936843F4E05378
S315080035809360236813F0080F04D0414A936843F404
S31508003590604393603E4A936823F0F003A1680B43A7
S315080035A09360236813F0010F32D06368012B21D092
S315080035B09A1E012A25D9364A126812F0020F61D0DE
S315080035C033498A6822F0030213438B60FFF70EFA29
S315080035D006462F4B9B6803F00C036268B3EB820F19
S315080035E016D0FFF703FA801B41F288339842F0D9C8
S315080035F0032042E0264A126812F4003FE0D1012077
S315080036003BE0234A126812F0007FD9D1012034E04A
S315080036101E4B1B6803F00F03AB4207D9EAB21B4BDC
S315080036201A701B6803F00F03AB422DD1236813F001
S31508003630040F06D0164A936823F4E053E1680B4357
S315080036409360236813F0080F07D0114A936823F490
S315080036506043216943EAC1039360FFF707FF0C4BF8
S315080036609B68C3F303130B4AD35CD8400A4B186014
S315080036700A4B1868FFF772F9002070BD0120FCE7B5
S315080036800120FAE70120F8E70120F6E7003C0240AE
S3150800369000380240A84800088C040020880400204E
S315080036A0014B1868704700BF8C04002008B5FFF767
S315080036B0F7FF044B9B68C3F38223034AD35CD840C5
S315080036C008BD00BF00380240B848000808B5FFF733
S315080036D0E7FF044B9B68C3F34233034AD35CD840E5
S315080036E008BD00BF00380240B848000810B4036A95
S315080036F0046A24F001040462846924F0F00C4CEA9C
S31508003700021223F00A030B438261036210BC70475E
S3150800371010B4046A24F0100404628469036A24F469
S31508003720704C4CEA023223F0A00343EA011382618B
S31508003730036210BC7047836823F070030B4343F0A1
S3150800374007038360704770470368304A904212D077
S31508003750B0F1804F0FD0A2F57C4290420BD002F513
S315080037608062904207D002F58062904203D002F54B
S315080037707842904203D123F070034A681343234AE0
S3150800378090422AD0B0F1804F27D0A2F57C429042D1
S3150800379023D002F5806290421FD002F580629042E3
S315080037A01BD002F57842904217D002F5705290422B
S315080037B013D002F5806290420FD002F580629042E3
S315080037C00BD0A2F59832904207D002F5806290425B
S315080037D003D002F58062904203D123F44073CA688D
S315080037E0134323F080034A69134303608B68C3625B
S315080037F00B688362054B984203D003F580639842B1
S3150800380001D10B690363012343617047000001403E
S3150800381010B50446A0B190F83D3063B1022384F890
S315080038203D30214651F8040BFFF78EFF012384F83B
S315080038303D30002010BD80F83C30FDF73BFBEDE73E
S315080038400120F7E738B50D460446E8B190F83D3053
S31508003850ABB1022384F83D30214651F8040BFFF73B
S3150800386073FF2268136823F0080313602368196836
S315080038700D431D60012384F83D30002038BD80F8D3
S315080038803C30FFF760FFE4E70120F7E710B48468EF
S3150800389024F47F4C42EA03220A4342EA0C0282607D
S315080038A010BC704710B5044690F83C30012B64D024
S315080038B0012380F83C30022380F83D300268936883
S315080038C023F47F4323F0770393600B68602B40D083
S315080038D022D8402B47D00BD9502B0ED1CA6849683D
S315080038E00068FFF703FF50212068FFF724FF04E074
S315080038F0202B0CD008D9302B09D0012384F83D3071
S31508003900002084F83C0010BD0BB1102BF5D11946E8
S315080039102068FFF710FFF0E7702B0ED0B3F5005FB5
S31508003920EBD1CB684A6889680068FFF7AFFF226861
S31508003930936843F480439360DFE7CB684A688968F5
S315080039400068FFF7A3FF2268936843F07703936044
S31508003950D3E7CA6849680068FFF7DAFE602120687D
S31508003960FFF7E9FEC9E7CA6849680068FFF7BEFEBF
S3150800397040212068FFF7DFFEBFE70220C3E710B546
S315080039800468A26822F070024B68134323F0070309
S315080039900A681343A3604B68602B2CD00CD8402BC5
S315080039A014D0502B06D10A6989680068FFF79EFE75
S315080039B0002028E0002026E0702B23D10B698A68B6
S315080039C0C9680068FFF762FF00201CE00B68052B3A
S315080039D01AD003681C6A1A6A22F001021A6202687F
S315080039E0936923F0F003096943EA011393610368B5
S315080039F01C62002007E00A6989680068FFF788FEEC
S31508003A00002000E0002010BD0120FCE710B50446A8
S31508003A1090F83C30012B20D0012380F83C3002235B
S31508003A2080F83D30FFF7ABFF80B92268D36823F0F2
S31508003A304003D3602268D36823F48043D36001230C
S31508003A4084F83D30002384F83C3010BD012084F80A
S31508003A503D00002384F83C30F7E70220F5E7000034
S31508003A6010B490F83C30012B3BD0012380F83C3051
S31508003A70022380F83D3003685A689C6822F0700C6F
S31508003A800A6842EA0C025A600368174A93421AD037
S31508003A90B3F1804F17D0A2F57C42934213D002F5BA
S31508003AA0806293420FD002F5806293420BD002F5F2
S31508003AB07842934207D002F57052934203D0A2F59A
S31508003AC09432934204D124F080044A6814439C60DB
S31508003AD0012380F83D30002380F83C30184610BC9E
S31508003AE070470220FBE700BF000001400268D36868
S31508003AF023F49073D3600268536923F0010353617A
S31508003B00202380F83A30704790F83930DBB2212B01
S31508003B1001D0022070478368B3F5805F17D0036A27
S31508003B205A1C02621A7803685A60C38C9BB2013B1E
S31508003B309BB2C3844BB90268D36823F08003D36071
S31508003B400268D36843F04003D36000207047036AD5
S31508003B501B880268C3F30803536003691BB9036A29
S31508003B6002330362E1E7036A01330362DDE700001B
S31508003B7038B504460268136923F44053C1680B43F9
S31508003B80136183680269134342691343C2691A437E
S31508003B900168CB6823F4164323F00C031343CB6068
S31508003BA00268536923F4407381690B435361C369FF
S31508003BB0B3F5004F35D00368604A934200F0918010
S31508003BC002F58062934200F08C80FFF76FFD0021BA
S31508003BD0031849411B1841F10001C90041EA537114
S31508003BE0DB00181863684FEA83024FEA937341F1C2
S31508003BF00001FCF713FC524DA5FB00325109642362
S31508003C0003FB11031B013233A5FB03235B0903F0F6
S31508003C10F00202EB011203F00F03216813448B60D4
S31508003C208AE00368454A93422FD002F580629342A0
S31508003C302BD0FFF73BFD0023021843EB03011218B4
S31508003C4041F10001C90041EA5271D200101841F150
S31508003C500001626892185B41FCF7E0FB384DA5FB52
S31508003C6000325109642303FB1103DB003233A5FB41
S31508003C7003235B095A0002F4F87202EB011203F0FF
S31508003C800703216813448B6056E0FFF71FFD0023E6
S31508003C90021843EB0301121841F10001C90041EA79
S31508003CA05271D200101841F10001626892185B4106
S31508003CB0FCF7B4FB224DA5FB00325109642303FB34
S31508003CC01103DB003233A5FB03235B095A0002F418
S31508003CD0F87202EB011203F00703216813448B60A4
S31508003CE02AE0FFF7F3FC0021031849411B1841F1AC
S31508003CF00001C90041EA5371DB00181863684FEAEE
S31508003D0083024FEA937341F10001FCF787FB0C4DE0
S31508003D10A5FB00325109642303FB11031B0132334F
S31508003D20A5FB03235B0903F0F00202EB011203F083
S31508003D300F03216813448B6038BD00BF0010014093
S31508003D401F85EB512DE9F84305460F461646994659
S31508003D50DDF820802C68246837EA04030CBF4FF08E
S31508003D60010C4FF0000CB4451FD1B8F1FF3FF1D05C
S31508003D70B8F1000F05D0FEF739FEA0EB0900404563
S31508003D80E8D92A68D36823F4D073D3602A685369BC
S31508003D9023F001035361202385F8393085F83A303A
S31508003DA0002385F83830032000E00020BDE8F883BA
S31508003DB010B5044648B390F839300BB3242384F879
S31508003DC039302268D36823F40053D3602046FFF7BE
S31508003DD0CFFE2268136923F490431361226853695E
S31508003DE023F02A0353612268D36843F40053D3604F
S31508003DF00020E063202384F8393084F83A3010BD77
S31508003E0080F83830FDF7BCF8D8E70120F7E72DE948
S31508003E10F04383B004460D4690461E4690F8393066
S31508003E20DBB2202B53D1002955D0002A55D090F863
S31508003E303830012B53D0012380F838304FF0000971
S31508003E40C0F83C90212380F83930FEF7CFFD0746AD
S31508003E50A4F82480A4F8268084F8389010E0009608
S31508003E603B46002280212046FFF76CFF002838D108
S31508003E702B882268C3F3080353602369CBB902353C
S31508003E80E38C9BB2BBB1E28C92B2013A92B2E28465
S31508003E90A368B3F5805FE2D000963B4600228021F6
S31508003EA02046FFF74FFFF0B915F8012B23685A6033
S31508003EB0E6E70135E4E700963B4600224021204626
S31508003EC0FFF740FF88B9202384F8393000E0022044
S31508003ED003B0BDE8F0830120FAE70120F8E70220E5
S31508003EE0F6E70320F4E70320F2E70320F0E770473C
S31508003EF008B50168CA6822F04002CA60202280F824
S31508003F003920FFF7F4FF002008BD704708B590F880
S31508003F103A30DBB2222B46D18368B3F5805F0FD0E7
S31508003F2003690BBB03685A68836A591C81621A7055
S31508003F30C38D9BB2013B9BB2C385F3B1002008BD7C
S31508003F40826A036943B903685B68C3F3080313808D
S31508003F50836A02338362EBE703685B68DBB213802C
S31508003F60836A01338362E3E703685B68826A511CEC
S31508003F70816203F07F031370DAE70268D36823F0DF
S31508003F802003D3600268D36823F48073D360026881
S31508003F90536923F001035361202380F83A30FFF771
S31508003FA0B4FF0020CBE70220C9E7704710B50446E6
S31508003FB002681368D168526913F00F0005D113F02F
S31508003FC0200F02D011F0200F13D128B112F00102F0
S31508003FD013D111F4907F10D113F0800F02D011F095
S31508003FE0800F6CD113F0400F02D011F0400F6AD148
S31508003FF010BD2046FFF78AFFFAE713F0010F06D037
S3150800400011F4807F03D0E06B40F00100E06313F009
S31508004010040F04D01AB1E06B40F00200E06313F01D
S31508004020020F04D01AB1E06B40F00400E06313F00D
S31508004030080F07D011F0200F00D11AB1E26B42F039
S315080040400802E263E26B002AD2D013F0200F02D0F6
S3150800405011F0200F21D123685B6903F04003E26B5E
S3150800406012F0080F00D123B32046FFF73FFD23685F
S315080040705A6912F0400F18D05A6922F040025A6164
S31508004080636B73B1124A1A65606BFEF703FE00286C
S31508004090AED0606B036D9847AAE72046FFF736FF58
S315080040A0D9E72046FFF781FFA2E72046FFF77DFF05
S315080040B09EE72046FFF779FF0023E36398E720464B
S315080040C0FFF722FD94E72046FFF712FF90E700BFAF
S315080040D0D540000808B5806B0023C385C384FFF765
S315080040E064FF08BD024B4FF000629A60704700BF3C
S315080040F000ED00E0024B1B6872B601229A77704702
S31508004100E04500082DE9F04107461A4B1E68EFF313
S3150800411011852B09013B072B02D9802383F31188CC
S31508004120337C03F0FF0443B101241CB125F00F05CD
S3150800413085F311882046BDE8F08100F01CF90D4B87
S31508004140D3F80880012333747774337CDBB2012BF0
S315080041500DD0337CDBB2022BE7D1D8F804100A461F
S315080041604046FCF701FB404600F07EF8DDE70223F7
S315080041703374EEE7E045000808B50E4B1B681A686D
S31508004180197F21B100211977596981F31088997F20
S3150800419011B10021997762B6EFF311831B09013B30
S315080041A0072B02D9802383F3118803495068FCF74B
S315080041B0E9FA00BFE04500088543000808B50E4B3C
S315080041C01B6800225A771A7F22B100221A775A6989
S315080041D082F310889A7F12B100229A7762B6EFF3BB
S315080041E011831B09013B072B02D9802383F311880E
S315080041F002494068FCF7C6FAE0450008854300080E
S31508004200836804229A70704738B5044683685D78D7
S31508004210FFF7F6FFFF2D06D015F0800F08D1002313
S3150800422083F3118862B6636998472046FFF7C6FF8D
S31508004230C5F10F052D01EDB285F31188F2E70000EF
S3150800424008B5084B1B681B7CDBB2022B05D1054B56
S315080042505B68002BF5D09847F3E7024B986800F0A7
S315080042607CF808BDE04500088268037E5370137821
S31508004270013BDBB213700BB993707047012393703F
S31508004280704700002DE9F0411B4B1C682568AE6895
S315080042900D60B378042B15D0E1680B68E3602B7EBC
S315080042A073700123B370231D2A461D46184600F075
S315080042B0EFF82946104800F0A3F8C0B12768384639
S315080042C0BDE8F081211D0C4800F0E8F88046276813
S315080042D0BD4208D02846FFF7C7FFA368C8F80030D4
S315080042E0C4F80880EBE73378013B3370F5E7E368F9
S315080042F05F682760E3E700BFE045000810B5064899
S315080043000468211D00F07CF820B1216800F006F849
S31508004310012010BD0020FCE7E045000808B503466B
S3150800432008468A689278022A04D05A684968FCF7CF
S315080043301BFA08BD5A684968FCF7F2F9F9E708B5A7
S3150800434008468B689B78022B03D04968FCF706FA67
S3150800435008BD4968FCF7F2F9FAE710B50368416841
S315080043601C680B681A461B680BB19C42FAD10A6096
S31508004370FCF7E4F910BD08B5FCF718FA00F0A0F848
S3150800438008BD000070B582B0144B1C68E5682B6840
S3150800439073B15E682268127C022A0CD001A9104803
S315080043A0FFF770FF01460198FFF7C9FF02B070BD1D
S315080043B00A4A9668EEE7E3606868FFF755FF2660E5
S315080043C0B36804229A70A3682B60A560FCF7FCF911
S315080043D071683046FCF7B2F9E8E700BFE045000827
S315080043E0FC4500084B689A68D0F80CC0C1F800C0B4
S315080043F0C16003605B7E5178994200D25370704762
S3150800440038B502460B4600680968C46894B1646802
S31508004410B1B1A26892F801E04D68AD6895F801C09F
S31508004420E6450FD2022595700A681A60FFF7DAFF8B
S31508004430204638BD41B19468A26802259570F3E715
S315080044400C46F5E70024F3E70C46F1E770B44B6831
S315080044509C68164622B193F818C00368002507E041
S3150800446094F801C0F9E76278624508D31D461B68CF
S315080044702BB15A689468002EF5D0127EF4E725B160
S31508004480296000200B6070BC704701600120F9E7C5
S3150800449008B54A600122FFF7D9FF08BD70B5054681
S315080044A00468E6683368E360FFF7AAFFE36808B1C3
S315080044B0304670BD13B15B682360F9E7AB68FBE76C
S315080044C04FF0E023D3F8242422F47002C3F82424FE
S315080044D0D3F8242442F4E002C3F82424D3F80421B0
S315080044E042F04002C3F804217047000008B50248AC
S315080044F000F01AF808BD00BF6108000810B5EFF310
S3150800450011842309013B072B02D9802383F31188E1
S3150800451062B60448FFF7F2FE72B624F00F0484F37D
S31508004520118810BDFC45000808B5804708BD000085
S31508004530F8B500BFF8BC08BC9E467047F8B500BF82
S30D08004540F8BC08BC9E46704752
S31508004548256420402025640D0A0000004245474995
S315080045584E0D0A00454E440D0A00000054696D6563
S31508004568203D2025640A00004552494B4176330A06
S315080045780D00000030313233343536373839414288
S3150800458843444546000000005461736B313A2025C0
S31508004598640D0A0054657374204661696C65642164
S315080045A821212C206C696E653A313032200D0A00BB
S315080045B85461736B323A2025640D0A005465737486
S315080045C8204661696C65642121212C206C696E6519
S315080045D83A313232200D0A0000000020E9080008A6
S315080045E860460008DC050120FFFF000014000000F3
S315080045F8EC450008E80501207C4600080300000091
S31508004608F845000801000000F00501200002000036
S31508004618F80701200002000000000220000400003C
S3150800462810460008200000203C000020000000007A
S3150800463800000000790C000801010100184600086E
S31508004648240000203F0000200100000000000000B0
S31508004658290D00080202010020460008280000204B
S315080046684200002002000000030000004142000842
S31508004678000001002846000844460008604600086D
S31508004688454645303231433236343546443144435B
S31508004698353836453639313834414634413331456B
S315080046A84435463533453933423546313233464142
S315080046B83431363830383637424131313031333192
S315080046C83934344645373935324532353137333357
S315080046D8373738304342304442383045363141411D
S315080046E845374338444443364335433641414445C0
S315080046F842333445423338413246343044354536F8
S315080047080000000030303636413139383138364302
S3150800471831384331304232463545443942353232EA
S3150800472837353241393833304236393931364535F5
S3150800473833354338463034373531384138383941D6
S3150800474834334135393442364245443237413136B5
S3150800475838443331443441353246383839323541AC
S315080047684138463500000000303033364531333994
S3150800477841454135353231353630394432383136A6
S31508004788393938454430323042424244393643335F
S31508004798373839304636353137314439343845397A
S315080047A8424337434241413444393332354432343B
S315080047B84436413343313237313046313041303966
S315080047C8464130384142383700000000303033411E
S315080047D830414145444437453738344643303744F1
S315080047E838463945433645334246443543334442C9
S315080047F8413736343536333633413130383639363B
S3150800480832324541433244443834454343354238C5
S3150800481841373444414334443039453033423545C9
S3150800482830424537373946324446363100000000AB
S31508004838204572696B617633204D5049207465733B
S31508004848742023342028696E765F6D6F64293A20B0
S31508004858000000006661696C65640A0D00000000C6
S315080048687061737365640A0D00000000556E6578FB
S31508004878706563746564206572726F722C20726540
S315080048887475726E20636F6465203D20253038582C
S315080048980A0D00005800002000061016000610161B
S315080048A800000000000000000102030406070809CA
S30D080048B80000000001020304E0
S30D080048C08CBBFF7F010000001C
S30D080048C8C1270008E5010008FC
S309080048D0C10100080C
S315080048D460460008000000002C00002000000000CC
S315080048E400FF0000000000000000000000000000B7
S315080048F4F0070120F8090120000000003400002018
S315080049040000000000000000000000000001000094
S315080049140200010004000000392600083D260008AC
S315080049241D2700085800002000000000440300204A
S31508004934AC0300201404002000000000000000005E
S315080049440000000000000000000000000000000055
S315080049540000000000000000000000000000000045
S315080049640000000000000000000000000000000035
S315080049740000000000000000000000000000000025
S315080049840000000000000000000000000000000015
S315080049940000000000000000000000000000000005
S315080049A400000000000000000000000000000000F5
S315080049B400000000000000000000000000000000E5
S315080049C400000000000000000000000000000000D5
S315080049D401000000000000000E33CDAB34126DE672
S315080049E4ECDE05000B0000000000000000000000DB
S315080049F400000000000000000000000000000000A5
S31508004A040000000000000000000000000000000094
S31508004A140000000000000000000000000000000084
S31508004A240000000000000000000000000000000074
S31508004D54100A012001000000100000000024F400DD
S70508000FF1F2
