S01100006572696B61336170702E7372656393
S315080000000000022041110008BD060008890C0008FE
S315080000108B0C00088D0C00088F0C000800000000EF
S31508000020000000000000000000000000910C00081D
S31508000030930C00080000000095060008950C0008BF
S3150800004091110008911100089111000891110008FA
S3150800005091110008911100089111000891110008EA
S3150800006091110008911100089111000891110008DA
S3150800007091110008911100089111000891110008CA
S3150800008091110008911100089111000891110008BA
S3150800009091110008911100089111000891110008AA
S315080000A0911100089111000891110008911100089A
S315080000B0911100089111000891110008911100088A
S315080000C0911100089111000891110008911100087A
S315080000D09111000891110008B12C0008911100082F
S315080000E0911100089111000891110008911100085A
S315080000F0911100089111000891110008911100084A
S315080001009111000891110008911100089111000839
S315080001109111000891110008911100089111000829
S315080001209111000891110008911100089111000819
S315080001309111000891110008911100089111000809
S3150800014091110008911100089111000891110008F9
S3150800015091110008911100089111000891110008E9
S3150800016091110008911100089111000891110008D9
S315080001709111000891110008911100080000000073
S30D08000180911100089111000815
S315080001C010B5054C237833B9044B13B10448AFF383
S315080001D000800123237010BD880400200000000061
S315080001E0F42C000808B5034B1BB103490348AFF3C9
S315080001F0008008BD000000008C040020F42C0008D4
S3150800020090F800F06DE9024520F007016FF0000C48
S3150800021010F0070491F820F040F049804FF00004F0
S315080002206FF00700D1E9002391F840F000F10800CB
S3150800023082FA4CF2A4FA8CF283FA4CF3A2FA8CF303
S315080002404BBBD1E9022382FA4CF200F10800A4FA6A
S315080002508CF283FA4CF3A2FA8CF3E3B9D1E90423BE
S3150800026082FA4CF200F10800A4FA8CF283FA4CF3F5
S31508000270A2FA8CF37BB9D1E9062301F1200182FAAF
S315080002804CF200F10800A4FA8CF283FA4CF3A2FAB5
S315080002908CF3002BC6D0002A04BF04301A4612BAC3
S315080002A0B2FA82F2FDE8024500EBD2007047D1E9C6
S315080002B0002304F00305C4F100004FEAC50514F055
S315080002C0040F91F840F00CFA05F562EA05021CBF26
S315080002D063EA050362464FF00004A9E753B94AB931
S315080002E0002908BF00281CBF4FF0FF314FF0FF3030
S315080002F000F074B9ADF1080C6DE904CE00F006F80B
S31508000300DDF804E0DDE9022304B070472DE9F04783
S31508000310089E0D4604468846002B4DD18A429446CF
S3150800032068D9B2FA82F252B101FA02F3C2F1200197
S3150800033020FA01F10CFA02FC41EA030894404FEA5C
S315080003401C45210CB8FBF5FE1FFA8CF705FB1E832E
S3150800035041EA03430EFB07F199420BD91CEB030351
S315080003600EF1FF3080F01E81994240F21B81AEF1FA
S31508000370020E63445B1AA4B2B3FBF5F005FB103317
S3150800038044EA034400FB07F7A7420AD91CEB040416
S3150800039000F1FF3380F00881A74240F205816444EA
S315080003A00238E41B40EA0E4000211EB1D440002367
S315080003B0C6E90043BDE8F0878B4208D9002E00F055
S315080003C0EE800021C6E900050846BDE8F087B3FAC5
S315080003D083F100294AD1AB4202D3824200F2F98066
S315080003E0841A65EB030301209846002EE2D0C6E97D
S315080003F00048DFE702B9FFDEB2FA82F2002A40F0CF
S315080004009180A1EB0C054FEA1C471FFA8CFE0121CF
S31508000410B5FBF7F307FB1350250C45EA00450EFB21
S3150800042003F0A84208D91CEB050503F1FF3802D2F0
S31508000430A84200F2CB8043462D1AA4B2B5FBF7F0CA
S3150800044007FB105544EA05440EFB00FEA64508D9ED
S315080004501CEB040400F1FF3502D2A64500F2BB806E
S315080004602846A4EB0E0440EA03409EE7C1F12007A4
S315080004708B4022FA07FC4CEA030C20FA07F405FA2B
S3150800048001F31C43FD404FEA1C4900FA01F3B5FB92
S31508000490F9F8200C1FFA8CFE09FB185540EA0545A9
S315080004A008FB0EF0A84202FA01F20BD91CEB05056F
S315080004B008F1FF3A80F08880A84240F28580A8F1CA
S315080004C0020865442D1AA4B2B5FBF9F009FB1055CC
S315080004D044EA054500FB0EFEAE4508D91CEB0505AA
S315080004E000F1FF346CD2AE456AD90238654440EA59
S315080004F00840A0FB0294A5EB0E05A542C846A646F1
S3150800050056D353D05EB1B3EB080265EB0E0505FA78
S3150800051007F722FA01F3CD401F43C6E9007500210B
S31508000520BDE8F087C2F1200320FA03F10CFA02FCB9
S3150800053025FA03F395400D434FEA1C471FFA8CFE34
S31508000540B3FBF7F107FB11302B0C43EA004301FB21
S315080005500EF0984204FA02F408D91CEB030301F1E1
S31508000560FF382FD298422DD9023963441B1AADB2EF
S31508000570B3FBF7F007FB103345EA034500FB0EF320
S31508000580AB4208D91CEB050500F1FF3816D2AB4281
S3150800059014D902386544ED1A40EA014138E7314674
S315080005A0304607E78646E5E61846FAE64B45A9D2F9
S315080005B0B9EB020864EB0C0E0138A3E74046EAE7FC
S315080005C0204694E74146D1E7D0467BE7023B65449F
S315080005D032E7084609E76444023842E7704700BF35
S315080005E02DE9F04FEFF3038410B41446256860B480
S315080005F0EFF30885256000F001B800BF0C462568B2
S3150800060085F3088860BC256010BC4FF080752C43C4
S3150800061084F30388BDE8F04F02F0D4B90A6882F380
S31508000620088802F0D3B900BF2DE9F04FEFF3038431
S3150800063010B41446256860B4EFF308852560FFF703
S31508000640EDBF00BF026882F3088808470C46256894
S3150800065085F3088860BC256010BC4FF080752C4374
S3150800066084F30388BDE8F04F704700BF15484FF480
S315080006707F0102680A43026013486FF07F410268EF
S315080006800A400260704700BF10484FF08051016071
S31508000690704700BF72B60D4A4FF0006111604FF007
S315080006A080730B4A0B490FB40FB46FF0060E7047F0
S315080006B006480121C9070160FEE700BF08B062B617
S315080006C07047000020ED00E01CED00E004ED00E0BE
S315080006D0C12C0008B106000800B583B000210191BD
S315080006E0094B1A6B42F400121A631B6B03F40013CE
S315080006F00193019B0A460D2000F05AFE0D2000F0DA
S315080007008FFE03B05DF804FB0038024008B54FF4CD
S315080007108051024801F0F6F8FEE700BF000C0240DF
S3150800072008B5024802F022F808BD00BFF8210020EB
S3150800073000B587B0002301930293039304930593AE
S3150800074000930C4B1A6B42F008021A631B6B03F0FA
S3150800075008030093009B4FF470430193012302930F
S315080007600223049301A9044800F0E2FF07B05DF8EC
S3150800077004FB00BF00380240000C0240704700002E
S315080007802DE9F04393B0534B1B78C3B9524B1B6802
S3150800079093B16B46504A12689A4210D04D4B0122CB
S315080007A01A704FF400514D4801F0ACF802F082F887
S315080007B04B4800F0E5F9FEE76A46474B1A60494B95
S315080007C01A6801321A601A68474B9A4202D813B05F
S315080007D0BDE8F083434B00221A6000F047FC00F0A6
S315080007E046FC00F045FC00F044FC00F043FC00F039
S315080007F04BFCDFF8F890CDF800903D4B0193484646
S3150800080000F094FB0290684600F0F8FBDFF8E480FD
S31508000810CDF80C80384B0493404600F087FB0590D2
S3150800082003A800F0EBFB354F0697354B0793384680
S3150800083000F07CFB089006A800F0E0FB314E099614
S31508000840314B0A93304600F071FB0B9009A800F073
S31508000850D5FB2E4D0C952E4B0D93284600F066FBC6
S315080008600E900CA800F0CAFB2A4C0F942A4B109342
S31508000870204600F05BFB11900FA800F0BFFB48462E
S3150800088000F054FB0146254800F07AF9404600F08E
S315080008904DFB0146224800F073F9384600F046FB46
S315080008A00146204800F06CF9304600F03FFB01464F
S315080008B01D4800F065F9284600F038FB01461B483C
S315080008C000F05EF9204600F031FB0146184800F0BA
S315080008D057F9FEE7AC040020A8040020000C0240EB
S315080008E0F0320008A40400203F420F006D100008F3
S315080008F00C3300086F100008183300087110000840
S3150800090024330008731000083433000875100008F3
S315080009104433000889100008503300085C33000887
S315080009207833000894330008B0330008CC33000845
S31508000930E833000810B500F0E7FC00244FF0E02388
S315080009401C6100F031F9FFF7C7FE00F03FFA00F02E
S3150800095075FAFFF7EDFE00F0A1FB204601F0B2FFA5
S31508000960204610BD84B0024608B1002015E03023A9
S315080009700B7000234B7020E0114BA3FB02C3DB086E
S315080009809C4603EB8303A2EB4303303300F11002CA
S315080009906A4402F80C3C6246013052B10928EBD988
S315080009A0002206E0831A0F336B4413F80C3C8B5471
S315080009B001329042F6D800230B5404B0704700BFAA
S315080009C0CDCCCCCC10B483B0034608B1002010E0DF
S315080009D030230B7000234B701BE003F00F020E4C04
S315080009E014F802C000F108026A4402F808CC1B0990
S315080009F0013053B10728F0D9002306E0C21A07329E
S31508000A006A4412F8082CCA5401339842F6D80023CF
S31508000A100B5403B010BC7047043400082DE9F047A6
S31508000A2086B00746884615460193044686E009EBD4
S31508000A308909303B03EB490901352B78A3F13002CC
S31508000A40D2B2092AF3D9633B152B6CD8DFE803F039
S31508000A50640B6B6B6B6B6B6B6B6B6B6B6B6B6B6B3F
S31508000A60566B6B6B6B44019B1A1D0192D3F800A061
S31508000A70BAF1000F0CDB504602A9FFF773FF02A874
S31508000A80FFF7BEFBBAF1000F05DB0023034408E0BD
S31508000A90CAF10000F0E70123F8E7202204F8012B49
S31508000AA001334B4502DAE21BB242F6D3BAF1000F24
S31508000AB001DB02AB09E0E31BB342FAD22D2304F8AB
S31508000AC0013BF6E704F8012B01331A78002A34D0E3
S31508000AD0E11BB142F6D330E0019B1A1D019202A92F
S31508000AE01868FFF76FFF02AB02E004F8012B013329
S31508000AF01A7812B3E11BB142F7D31EE0019B1A1D07
S31508000B0001921B6802E0013304F8012B1A78A2B19E
S31508000B10E11BB142F7D310E0019B1A1D01921B7825
S31508000B2004F8013B09E02346252203F8022B2A781C
S31508000B3062701C4601E004F8012B01352A7852B18F
S31508000B40E31B08F1FF36B34205D2252AF3D1013556
S31508000B504FF0000971E700232370E01B06B0BDE8DB
S31508000B60F087000010B50446FFF74AFB4FF0FF3345
S31508000B7082B22146014801F02AFD10BDF821002065
S31508000B800FB400B5A3B024AB53F8042B019380210E
S31508000B9002A8FFF743FF02A8FFF7E4FF23B05DF8BA
S31508000BA004EB04B07047000030B595B000240194FA
S31508000BB0224B1A6C42F080521A641B6C03F0805365
S31508000BC00193019B02941E4B1A6842F480421A60F4
S31508000BD01B6803F480430293029B012303934FF49B
S31508000BE080330493022509954FF480030A9308235A
S31508000BF00B934FF4A8730C930D9507230E9303A834
S31508000C0000F08AFE0F230F93109511944FF4A0530A
S31508000C1012934FF48053139305210FA801F0DCF8C3
S31508000C2000F0AEFB41F20103984201D015B030BD89
S31508000C30044A136843F480731360F7E700380240E8
S31508000C4000700040003C024000B583B000210091CE
S31508000C500C4B5A6C42F480425A645A6C02F4804235
S31508000C600092009A01911A6C42F080521A641B6C29
S31508000C7003F080530193019B072000F087FB03B024
S31508000C805DF804FB00380240FEE7FEE7FEE7FEE7F4
S31508000C907047704708B500F04DFB08BD10B5254BE9
S31508000CA0198889B22448FFF76BFF244C4FF480510A
S31508000CB0204600F027FE4FF48041204600F022FE31
S31508000CC001224FF40041204600F016FE4FF47A70D8
S31508000CD000F042FB00224FF40041204600F00CFED3
S31508000CE04FF47A7000F038FB154B1B78C3B9154BD7
S31508000CF01B6893B16B46134A12689A4210D0104B80
S31508000D0001221A704FF400510C4800F0FBFD01F067
S31508000D10D1FD0D48FFF734FFFEE76A46094B1A6016
S31508000D20044A13889BB201339BB2138001F006FE76
S31508000D3010BD00BFAE04002018340008000C0240A5
S31508000D40BD040020B80400202434000808B5194B57
S31508000D50198889B21848FFF713FF4FF47A7000F024
S31508000D60FBFA4FF47A7000F0F7FA144B1B78C3B904
S31508000D70134B1B6893B16B46114A12689A4210D0FE
S31508000D800E4B01221A704FF400510E4800F0BAFDBE
S31508000D9001F090FD0C48FFF7F3FEFEE76A46084BA4
S31508000DA01A60044A13889BB201339BB2138001F080
S31508000DB0C5FD08BDB004002040340008BC0400206E
S31508000DC0B4040020000C02404C34000800B587B07B
S31508000DD00023029303930493059300930193154804
S31508000DE0154A0260436083604FF6FF72C260036172
S31508000DF08023836101F080F990B94FF48053029300
S31508000E0002A90C4801F09EF968B9002300930193E2
S31508000E106946084801F004FA40B907B05DF804FBD2
S31508000E20FFF774FCE9E7FFF771FCEEE7FFF76EFCE6
S31508000E30F3E700BF200500200004004000B583B09A
S31508000E400023009301930F480F4A026043608360B2
S31508000E504FF6FF73C3608023836101F04DF950B9E3
S31508000E600023009301936946064801F0D9F928B989
S31508000E7003B05DF804FBFFF749FCF1E7FFF746FC12
S31508000E80F6E700BF600500200014004010B582B0E8
S31508000E9004460368204A934204D0204A93422ED03F
S31508000EA002B010BD0023009302F50D32116C41F01B
S31508000EB002011164126C02F002020092009A1848AC
S31508000EC0184A02604FF0206242608360C3604FF4A4
S31508000ED0806202614FF4805242614FF4804282611F
S31508000EE0C3610362436200F03BFB28B90C4B2363E2
S31508000EF09C6323629C63D3E7FFF708FCF6E70023AD
S31508000F000193094B1A6C42F020021A641B6C03F019
S31508000F1020030193019BC3E700040040001400402E
S31508000F20C0040020406002400038024080B584B00A
S31508000F3000AF78600A4801F052F80A4B5B6AFB601A
S31508000F407B689847074B5B6ABB60054801F059F810
S31508000F50BA68FB68D31A083B18461037BD4680BDE9
S31508000F60600500200014004070B506460A48FFF7E1
S31508000F7007FE0023194605E04D1C0848FFF700FE4A
S31508000F80234629465C1C56F82330042BF4D1044822
S31508000F90FFF7F6FD70BD00BFB8320008C032000882
S31508000FA0C8320008034A536812689B1A024A135447
S31508000FB0704700BFA00500204016002070B5064601
S31508000FC00A48FFF7DDFD0024254606E0084B595D73
S31508000FD00848FFF7D5FD0134013556F82430042BAF
S31508000FE0F4D10548FFF7CCFD70BD00BFD432000828
S31508000FF040160020CC320008C83200082DE9F0411E
S3150800100000AF054682689300073323F00703ADEB6C
S31508001010030DE846042348F8223000240AE02B682A
S3150800102002222146012001F071FE661C2046FFF7C8
S31508001030B9FF3446AB68A342F1D80B4E06F110044B
S315080010402046FFF79DFD696806F12800FFF798FD21
S315080010504046FFF789FF4046FFF7B0FF2046FFF7F7
S315080010608FFDBD46BDE8F081B8320008704770476D
S315080010707047704782B0034BDB798DF8073002B0B2
S31508001080704700BF4015002082B0034B93F8FF302D
S315080010908DF8073002B070474015002008B50A4899
S315080010A00A4B03604FF4E13343600C23436100238A
S315080010B08360C36003618361C36101F059FA00B9B3
S315080010C008BDFFF723FBFBE7F8210020004400409A
S315080010D000B589B0002303930493059306930793F9
S315080010E00268154B9A4202D009B05DF804FB00214C
S315080010F0019103F5FA331A6C42F400321A641A6C39
S3150800110002F400320192019A02911A6B42F001022E
S315080011101A631B6B03F001030293029B0C230393D0
S3150800112002230493032306930723079303A903487B
S3150800113000F0FEFAD8E700BF004400400000024075
S31508001140DFF834D0002103E00C4B5B5843500431E0
S315080011500B480C4B42189A42F6D30B4A02E000237E
S3150800116042F8043B094B9A42F9D301F09BFB00F085
S3150800117011F8FFF7DFFB7047000002203035000842
S31508001180000000208804002088040020542600203F
S31508001190FEE7000070B50D4E0D4D761BB61006D055
S315080011A0002455F8043B01349847A642F9D1094E64
S315080011B0094D761B01F09EFDB61006D0002455F8A1
S315080011C0043B01349847A642F9D170BD243500087E
S315080011D0243500082C35000824350008024B13B1C5
S315080011E0024800F005B8704700000000FD1100082D
S315080011F0002301461A46184600F01AB838B5084BB7
S31508001200084D5B1B9C1007D0043B1D44013C55F858
S3150800121004399847002CF9D1BDE8384001F070BD73
S31508001220303500082C350008704700BF704700BFEE
S315080012302DE9F047DFF87CA00646DAF80000984664
S315080012400F469146FFF7F0FF1B4B1B68D3F8484142
S3150800125024B365681F2D26DC5EB96B1C0235DAF8E7
S315080012600000636044F82570FFF7E0FF0020BDE842
S31508001270F08704EB85010123C1F88890D4F888210A
S31508001280AB401A43022EC4F88821C1F80881E4D17C
S31508001290D4F88C211343C4F88C31DEE703F5A67421
S315080012A0C3F84841D5E7DAF80000FFF7BFFF4FF06B
S315080012B0FF30DCE778040020F834000810B504464F
S315080012C00E4B18784FF47A73B3FBF0F30C4A106898
S315080012D0B0FBF3F000F0B2F868B90F2C01D9012081
S315080012E00AE0002221464FF0FF3000F061F8054B76
S315080012F01C60002000E0012010BD00BF7C04002017
S31508001300840400208004002008B5094B1A6842F4BA
S3150800131000721A601A6842F480621A60032000F0AC
S3150800132035F80F20FFF7CAFFFFF78EFC002008BD2F
S31508001330003C0240034A1168034B1B780B441360B8
S31508001340704700BF502600207C040020014B186817
S31508001350704700BF5026002038B50446FFF7F6FF51
S315080013600546B4F1FF3F02D0044B1B781C44FFF737
S31508001370EDFF401BA042FAD338BD00BF7C04002015
S31508001380014B1868000C7047002004E0074AD36830
S3150800139023F4E0631B041B0C000200F4E060034323
S315080013A043F0BF6343F40033D360704700ED00E0B9
S315080013B000B5194BDB68C3F30223C3F1070CBCF174
S315080013C0040F28BF4FF0040C03F1040EBEF1060FFC
S315080013D018D9033B4FF0FF3E0EFA0CFC21EA0C012C
S315080013E099400EFA03F322EA0303194300280BDB9C
S315080013F00901C9B200F1604000F5614080F80013A8
S315080014005DF804FB0023E5E700F00F000901C9B207
S31508001410024B1954F4E700BF00ED00E014ED00E0BC
S31508001420002807DB00F01F02400901239340024A07
S3150800143042F82030704700BF00E100E00138B0F103
S31508001440807F0BD24FF0E0235861054AF02182F8DD
S3150800145023100020986107221A61704701207047FF
S3150800146000ED00E030B405682C6824F480242C6074
S31508001470046863608368402B05D003689960036835
S31508001480DA6030BC704703689A600368D960F8E789
S3150800149010B40368D9B210390B4AA2FB01421209EB
S315080014A00A4CA25CC2655F2908D923F47F7323F02E
S315080014B0030304338365806D10BC704723F47F7380
S315080014C023F003038365F6E7ABAAAAAAFC3400084F
S315080014D0836A826992B9012B0AD0022B02D00BB11A
S315080014E000207047C36A13F0807F28D10020704718
S315080014F0C36AB3F1C07F24D000207047B2F5005FFD
S3150800150009D0022B25D9032B25D1C36A13F0807F76
S3150800151023D100207047032B03D8DFE803F0140417
S31508001520140A00207047C36A13F0807F0DD100208B
S315080015307047C36AB3F1C07F09D000207047012005
S31508001540704701207047012070470120704701202D
S31508001550704701207047002070470120704700003F
S3150800156070B50446FFF7F2FE0546002C5AD0002354
S3150800157084F83430022384F835302268136823F05F
S315080015800103136023681A6812F0010F0AD0FFF7E7
S31508001590DDFE431B052BF5D920236365032084F85C
S315080015A0350070BD1A68204810406168A2680A4371
S315080015B0E1680A4321690A4361690A43A1690A4342
S315080015C0E1690A43216A0A430243616A04291ED073
S315080015D01A602668756925F00705636A1D43042B9A
S315080015E007D1A36A1D43E36A1BB12046FFF770FFC4
S315080015F090B975612046FFF74BFFE26D3F23934094
S31508001600836000206065012384F83530C9E7E16A04
S31508001610206B01430A43DBE740236365012084F816
S315080016203500BEE70120BCE73F8010F038B5044618
S3150800163090F8340001281BD0012084F8340094F86F
S315080016403500C0B2012804D0002384F834300220C3
S3150800165038BD022084F83500002565652046FFF769
S3150800166001FF2268136843F0010313602846EFE779
S315080016700220EDE770B50446866DFFF767FE05465E
S3150800168094F83530DBB2022B06D08023636500233D
S3150800169084F83430012070BD2268136823F01603DD
S315080016A013602268536923F080035361236CE3B106
S315080016B02268136823F0080313602268136823F06E
S315080016C00103136023681B6813F0010F11D0FFF79D
S315080016D03DFE431B052BF5D920236365002384F8BB
S315080016E03430032084F83500D5E7A36C002BDFD10E
S315080016F0E3E7E26D3F239340B360002084F83400AB
S31508001700012384F83530C6E790F83530DBB2022B72
S3150800171003D08023436501207047052380F83530C0
S315080017200268136823F00103136000207047000065
S31508001730F0B583B0002337E0072200E00022AA4074
S3150800174032430234684D45F82420684A14686FEA23
S315080017500C0224EA0C054E6816F4803F01D04CEAC8
S315080017600405624C2560646802EA04054E6816F4AE
S31508001770003F01D04CEA04055C4C6560A46802EAA7
S3150800178004054E6816F4801F01D04CEA0405574C30
S31508001790A560E46822404D6815F4001F01D04CEAA4
S315080017A00402524CE26001330F2B00F29A800122A8
S315080017B09A400C6804EA020C32EA0404F3D14C6835
S315080017C0651E012D03D9112C01D0122C12D1856862
S315080017D05E000324B44025EA0405CC68B4402C43D3
S315080017E08460456825EA02054C68C4F300129A40ED
S315080017F02A434260C5684FEA430E032404FA0EF4EE
S31508001800E24325EA04058C6804FA0EF42C43C46006
S315080018104C68022C01D0122C0FD1DD08083550F87F
S31508001820257003F00704A6000F24B44027EA04072E
S315080018300C69B4403C4340F82540046814404A68A3
S3150800184002F0030202FA0EF2224302604A6812F01C
S31508001850805FA8D000220192254A546C44F4804443
S315080018605464526C02F480420192019A9C08A51CA9
S315080018701D4A52F8256003F0030295000F22AA407C
S3150800188026EA02061B4A90423FF458AF02F58062E8
S3150800189090421AD002F58062904218D002F5806212
S315080018A0904216D002F58062904214D002F580620A
S315080018B0904212D002F58062904210D002F5806202
S315080018C090423FF439AF082239E7012237E702226E
S315080018D035E7032233E7042231E705222FE70622FC
S315080018E02DE703B0F0BD00BF00380140003C0140C1
S315080018F000380240000002400AB1816170470904BD
S3150800190081617047436931EA030301D081617047F9
S31508001910090481617047000070B582B0044600284A
S3150800192000F0D781036813F0010F3BD09F4B9B68EB
S3150800193003F00C03042B2CD09C4B9B6803F00C0380
S31508001940082B21D06368B3F5803F4FD0B3F5A02F9D
S3150800195052D0964B1A6822F480321A601A6822F41A
S3150800196080221A606368002B50D0FFF7EFFC05460B
S315080019708E4B1B6813F4003F14D1FFF7E7FC401B9E
S315080019806428F5D90320A5E1884B5B6813F4800F1A
S31508001990D8D0864B1B6813F4003F03D06368002B2E
S315080019A000F09A81236813F0020F54D07F4B9B688E
S315080019B013F00C0F3ED07D4B9B6803F00C03082BED
S315080019C033D0E368002B68D0794B01221A60FFF701
S315080019D0BDFC0546754B1B6813F0020F54D1FFF783
S315080019E0B5FC401B0228F5D9032073E16F4A13683A
S315080019F043F480331360B5E76C4B1A6842F48022CF
S31508001A001A601A6842F480321A60ABE7FFF79EFC48
S31508001A100546664B1B6813F4003FC3D0FFF796FCD8
S31508001A20401B6428F5D9032054E1604B5B6813F426
S31508001A30800FC6D15D4B1B6813F0020F03D0E36815
S31508001A40012B40F04B81594A136823F0F8032169AA
S31508001A5043EAC1031360236813F0080F42D0636991
S31508001A606BB3534B0122C3F8802EFFF76FFC054674
S31508001A704E4B5B6F13F0020F34D1FFF767FC401B28
S31508001A800228F5D9032025E1484A136823F0F8030C
S31508001A90216943EAC1031360DDE7454B00221A605A
S31508001AA0FFF754FC0546414B1B6813F0020FD2D0D2
S31508001AB0FFF74CFC401B0228F5D903200AE13C4BF2
S31508001AC00022C3F8802EFFF741FC0546374B5B6FB3
S31508001AD013F0020F06D0FFF739FC401B0228F5D990
S31508001AE00320F7E0236813F0040F77D02F4B1B6C05
S31508001AF013F0805F33D1002301932C4B1A6C42F00C
S31508001B0080521A641B6C03F080530193019B0125D4
S31508001B10284B1B6813F4807F23D0A368012B34D08D
S31508001B20052B38D0214B1A6F22F001021A671A6F5B
S31508001B3022F004021A67A368002B3DD0FFF706FCC3
S31508001B4006461A4B1B6F13F0020F46D1FFF7FEFB32
S31508001B50801B41F288339842F3D90320BAE0002566
S31508001B60D6E7144A136843F480731360FFF7EEFB55
S31508001B700646104B1B6813F4807FCED1FFF7E6FBB1
S31508001B80801B0228F5D90320A4E0084A136F43F006
S31508001B9001031367CFE7054B1A6F42F004021A6771
S31508001BA01A6F42F001021A67C5E700BF0038024003
S31508001BB00000474200700040FFF7C8FB06464F4B3F
S31508001BC01B6F13F0020F08D0FFF7C0FB801B41F212
S31508001BD088339842F3D903207CE0E5B9A369002B42
S31508001BE07ED0464A926802F00C02082A51D0022B8F
S31508001BF017D0434B00221A66FFF7A8FB04463F4B53
S31508001C001B6813F0007F42D0FFF7A0FB001B0228D9
S31508001C10F5D903205EE0394A136C23F08053136428
S31508001C20DCE7374B00221A66FFF790FB0546334B75
S31508001C301B6813F0007F06D0FFF788FB401B0228BD
S31508001C40F5D9032046E0E369226A1343626A43EA48
S31508001C508213A26A5208013A43EA0243E26A43EA55
S31508001C600263264A5360264B01221A66FFF76EFB6B
S31508001C700446224B1B6813F0007F06D1FFF766FB6C
S31508001C80001B0228F5D9032024E0002022E00020CA
S31508001C9020E0012B26D0194B5B6803F48001E2692A
S31508001CA0914221D103F03F02216A8A421ED1616A1C
S31508001CB047F6C0721A408A421AD103F44032A16A22
S31508001CC08A4217D103F07063E26A934214D1002066
S31508001CD000E0012002B070BD0120FBE70120F9E712
S31508001CE00020F7E70120F5E70120F3E70120F1E7F7
S31508001CF00120EFE70120EDE70120EBE7003802407D
S31508001D000000474208B5314B9B6803F00C03042BCF
S31508001D1057D0082B57D12D4B5A6802F03F025B6803
S31508001D2013F4800F2AD0294B5968C1F3881C4FEA4F
S31508001D304C11B1EB0C006EEB0E0E4FEA8E1343EA14
S31508001D4090638101091A63EB0E03DB0043EA5173C2
S31508001D50C90011EB0C0C43F10003590200234FEAAA
S31508001D604C2041EADC51FEF7B9FA184B5B68C3F31D
S31508001D70014301335B00B0FBF3F025E0134B5968D0
S31508001D80C1F3881C4FEA4C11B1EB0C006EEB0E0E3A
S31508001D904FEA8E1343EA90638101091A63EB0E0337
S31508001DA0DB0043EA5173C90011EB0C0C43F1000345
S31508001DB0990200234FEA8C2041EA9C51FEF78EFADD
S31508001DC0D3E7034800E0034808BD00BF00380240D7
S31508001DD000127A000024F40070B50D460446002867
S31508001DE000F098804F4B1B6803F00F038B4208D214
S31508001DF0CBB24C4A1370136803F00F038B4240F0C2
S31508001E008B80236813F0020F17D013F0040F04D049
S31508001E10454A936843F4E0539360236813F0080F28
S31508001E2004D0414A936843F4604393603E4A9368FA
S31508001E3023F0F003A1680B439360236813F0010FA6
S31508001E4032D06368012B21D09A1E012A25D9364A39
S31508001E50126812F0020F61D033498A6822F0030231
S31508001E6013438B60FFF772FA06462F4B9B6803F005
S31508001E700C036268B3EB820F16D0FFF767FA801B74
S31508001E8041F288339842F0D9032042E0264A126884
S31508001E9012F4003FE0D101203BE0234A126812F019
S31508001EA0007FD9D1012034E01E4B1B6803F00F03D5
S31508001EB0AB4207D9EAB21B4B1A701B6803F00F0333
S31508001EC0AB422DD1236813F0040F06D0164A936847
S31508001ED023F4E053E1680B439360236813F0080F7B
S31508001EE007D0114A936823F46043216943EAC10382
S31508001EF09360FFF707FF0C4B9B68C3F303130B4A6A
S31508001F00D35CD8400A4B18600A4B1868FFF7D6F915
S31508001F10002070BD0120FCE70120FAE70120F8E760
S31508001F200120F6E7003C024000380240043500086C
S31508001F308404002080040020014B1868704700BF05
S31508001F408404002008B5FFF7F7FF044B9B68C3F32A
S31508001F508223034AD35CD84008BD00BF003802403C
S31508001F601435000808B5FFF7E7FF044B9B68C3F371
S31508001F704233034AD35CD84008BD00BF003802404C
S31508001F801435000810B4036A046A24F001040462D4
S31508001F90846924F0F00C4CEA021223F00A030B437E
S31508001FA08261036210BC704710B4046A24F01004FE
S31508001FB004628469036A24F4704C4CEA023223F002
S31508001FC0A00343EA01138261036210BC7047836869
S31508001FD023F070030B4343F0070383607047022323
S31508001FE080F83D300268936803F00703062B03D098
S31508001FF0136843F001031360012380F83D30002085
S315080020007047022380F83D300368196A41F21112BD
S31508002010114208D1196A40F24442114203D11A68A2
S3150800202022F001021A60012380F83D300020704733
S315080020300368304A904212D0B0F1804F0FD0A2F513
S315080020407C4290420BD002F58062904207D002F59E
S315080020508062904203D002F57842904203D123F081
S3150800206070034A681343234A90422AD0B0F1804F3E
S3150800207027D0A2F57C42904223D002F58062904296
S315080020801FD002F5806290421BD002F5784290423A
S3150800209017D002F57052904213D002F58062904232
S315080020A00FD002F5806290420BD0A2F5983290428A
S315080020B007D002F58062904203D002F58062904212
S315080020C003D123F44073CA68134323F080034A6993
S315080020D0134303608B68C3620B688362054B98429F
S315080020E003D003F58063984201D10B69036301238A
S315080020F0436170470000014010B50446A0B190F84E
S315080021003D3063B1022384F83D30214651F8040B73
S31508002110FFF78EFF012384F83D30002010BD80F8BC
S315080021203C30FEF7B3FEEDE70120F7E710B484680C
S3150800213024F47F4C42EA03220A4342EA0C028260F4
S3150800214010BC704710B5044690F83C30012B64D09B
S31508002150012380F83C30022380F83D3002689368FA
S3150800216023F47F4323F0770393600B68602B40D0FA
S3150800217022D8402B47D00BD9502B0ED1CA684968B4
S315080021800068FFF7FFFE50212068FFF720FF04E0F4
S31508002190202B0CD008D9302B09D0012384F83D30E8
S315080021A0002084F83C0010BD0BB1102BF5D1194660
S315080021B02068FFF70CFFF0E7702B0ED0B3F5005F31
S315080021C0EBD1CB684A6889680068FFF7AFFF2268D9
S315080021D0936843F480439360DFE7CB684A6889686D
S315080021E00068FFF7A3FF2268936843F077039360BC
S315080021F0D3E7CA6849680068FFF7D6FE60212068F9
S31508002200FFF7E5FEC9E7CA6849680068FFF7BAFE3E
S3150800221040212068FFF7DBFEBFE70220C3E7000086
S3150800222010B490F83C30012B3BD0012380F83C30A9
S31508002230022380F83D3003685A689C6822F0700CC7
S315080022400A6842EA0C025A600368174A93421AD08F
S31508002250B3F1804F17D0A2F57C42934213D002F512
S31508002260806293420FD002F5806293420BD002F54A
S315080022707842934207D002F57052934203D0A2F5F2
S315080022809432934204D124F080044A6814439C6033
S31508002290012380F83D30002380F83C30184610BCF6
S315080022A070470220FBE700BF000001400268D368C0
S315080022B023F49073D3600268536923F001035361D2
S315080022C0202380F83A30704790F83930DBB2212B5A
S315080022D001D0022070478368B3F5805F17D0036A80
S315080022E05A1C02621A7803685A60C38C9BB2013B77
S315080022F09BB2C3844BB90268D36823F08003D360CA
S315080023000268D36843F04003D36000207047036A2D
S315080023101B880268C3F30803536003691BB9036A81
S3150800232002330362E1E7036A01330362DDE7000073
S3150800233038B504460268136923F44053C1680B4351
S31508002340136183680269134342691343C2691A43D6
S315080023500168CB6823F4164323F00C031343CB60C0
S315080023600268536923F4407381690B435361C36957
S31508002370B3F5004F35D00368604A934200F0918068
S3150800238002F58062934200F08C80FFF7DBFD0021A6
S31508002390031849411B1841F10001C90041EA53716C
S315080023A0DB00181863684FEA83024FEA937341F11A
S315080023B00001FDF793FF524DA5FB00325109642336
S315080023C003FB11031B013233A5FB03235B0903F04F
S315080023D0F00202EB011203F00F03216813448B602D
S315080023E08AE00368454A93422FD002F580629342F9
S315080023F02BD0FFF7A7FD0023021843EB03011218A1
S3150800240041F10001C90041EA5271D200101841F1A8
S315080024100001626892185B41FDF760FF384DA5FB25
S3150800242000325109642303FB1103DB003233A5FB99
S3150800243003235B095A0002F4F87202EB011203F057
S315080024400703216813448B6056E0FFF78BFD0023D2
S31508002450021843EB0301121841F10001C90041EAD1
S315080024605271D200101841F10001626892185B415E
S31508002470FDF734FF224DA5FB00325109642303FB07
S315080024801103DB003233A5FB03235B095A0002F470
S31508002490F87202EB011203F00703216813448B60FC
S315080024A02AE0FFF75FFD0021031849411B1841F197
S315080024B00001C90041EA5371DB00181863684FEA46
S315080024C083024FEA937341F10001FDF707FF0C4DB4
S315080024D0A5FB00325109642303FB11031B013233A8
S315080024E0A5FB03235B0903F0F00202EB011203F0DC
S315080024F00F03216813448B6038BD00BF00100140EC
S315080025001F85EB512DE9F84305460F4616469946B1
S31508002510DDF820802C68246837EA04030CBF4FF0E6
S31508002520010C4FF0000CB4451FD1B8F1FF3FF1D0B4
S31508002530B8F1000F05D0FEF709FFA0EB09004045EA
S31508002540E8D92A68D36823F4D073D3602A68536914
S3150800255023F001035361202385F8393085F83A3092
S31508002560002385F83830032000E00020BDE8F88312
S3150800257010B5044648B390F839300BB3242384F8D1
S3150800258039302268D36823F40053D3602046FFF716
S31508002590CFFE2268136923F49043136122685369B6
S315080025A023F02A0353612268D36843F40053D360A7
S315080025B00020E063202384F8393084F83A3010BDCF
S315080025C080F83830FEF784FDD8E70120F7E72DE9D3
S315080025D0F04383B004460D4690461E4690F83930BF
S315080025E0DBB2202B53D1002955D0002A55D090F8BC
S315080025F03830012B53D0012380F838304FF00009CA
S31508002600C0F83C90212380F83930FEF79FFE074634
S31508002610A4F82480A4F8268084F8389010E0009660
S315080026203B46002280212046FFF76CFF002838D160
S315080026302B882268C3F3080353602369CBB9023594
S31508002640E38C9BB2BBB1E28C92B2013A92B2E284BD
S31508002650A368B3F5805FE2D000963B46002280214E
S315080026602046FFF74FFFF0B915F8012B23685A608B
S31508002670E6E70135E4E700963B460022402120467E
S31508002680FFF740FF88B9202384F8393000E002209C
S3150800269003B0BDE8F0830120FAE70120F8E702203D
S315080026A0F6E70320F4E70320F2E70320F0E7704794
S315080026B008B50168CA6822F04002CA60202280F87C
S315080026C03920FFF7F4FF002008BD704708B590F8D9
S315080026D03A30DBB2222B46D18368B3F5805F0FD040
S315080026E003690BBB03685A68836A591C81621A70AE
S315080026F0C38D9BB2013B9BB2C385F3B1002008BDD5
S31508002700826A036943B903685B68C3F308031380E5
S31508002710836A02338362EBE703685B68DBB2138084
S31508002720836A01338362E3E703685B68826A511C44
S31508002730816203F07F031370DAE70268D36823F037
S315080027402003D3600268D36823F48073D3600268D9
S31508002750536923F001035361202380F83A30FFF7C9
S31508002760B4FF0020CBE70220C9E7704710B504463E
S3150800277002681368D168526913F00F0005D113F087
S31508002780200F02D011F0200F13D128B112F0010248
S3150800279013D111F4907F10D113F0800F02D011F0ED
S315080027A0800F6CD113F0400F02D011F0400F6AD1A0
S315080027B010BD2046FFF78AFFFAE713F0010F06D08F
S315080027C011F4807F03D0E06B40F00100E06313F062
S315080027D0040F04D01AB1E06B40F00200E06313F076
S315080027E0020F04D01AB1E06B40F00400E06313F066
S315080027F0080F07D011F0200F00D11AB1E26B42F092
S315080028000802E263E26B002AD2D013F0200F02D04E
S3150800281011F0200F21D123685B6903F04003E26BB6
S3150800282012F0080F00D123B32046FFF73FFD2368B7
S315080028305A6912F0400F18D05A6922F040025A61BC
S31508002840636B73B1124A1A65606BFEF75DFF002869
S31508002850AED0606B036D9847AAE72046FFF736FFB0
S31508002860D9E72046FFF781FFA2E72046FFF77DFF5D
S315080028709EE72046FFF779FF0023E36398E72046A3
S31508002880FFF722FD94E72046FFF712FF90E700BF07
S315080028909528000808B5806B0023C385C384FFF715
S315080028A064FF08BD024B4FF000629A60704700BF94
S315080028B000ED00E0024B1B6872B601229A7770475A
S315080028C0683400082DE9F04107461B4B1E68EFF3F4
S315080028D011852B09013B072B02D9802383F3118825
S315080028E0337C03F0FF0443B101241CB125F00F0526
S315080028F085F311882046BDE8F08100F01EF90E4BDD
S31508002900D3F80880012333747774FDF737FF337CD7
S31508002910DBB2012B0DD0337CDBB2022BE5D1D8F824
S3150800292004100A464046FDF77FFE404600F07EF852
S31508002930DBE702233374EEE76834000808B50E4B6C
S315080029401B681A68197F21B100211977596981F323
S315080029501088997F11B10021997762B6EFF3118338
S315080029601B09013B072B02D9802383F311880349EE
S315080029705068FDF767FE00BF68340008492B000859
S3150800298008B50E4B1B6800225A771A7F22B100221F
S315080029901A775A6982F310889A7F12B100229A77B9
S315080029A062B6EFF311831B09013B072B02D980237B
S315080029B083F3118802494068FDF744FE683400082D
S315080029C0492B0008836804229A70704738B5044674
S315080029D083685D78FFF7F6FFFF2D06D015F0800FA8
S315080029E008D1002383F3118862B6636998472046A5
S315080029F0FFF7C6FFC5F10F052D01EDB285F3118866
S31508002A00F2E7000008B5084B1B681B7CDBB2022BFB
S31508002A1005D1054B5B68002BF5D09847F3E7024BC9
S31508002A20986800F07CF808BD683400088268037E60
S31508002A3053701378013BDBB213700BB99370704770
S31508002A4001239370704700002DE9F0411B4B1C6869
S31508002A502568AE680D60B378042B15D0E1680B685D
S31508002A60E3602B7E73700123B370231D2A461D462F
S31508002A70184600F0EFF82946104800F0A3F8C0B150
S31508002A8027683846BDE8F081211D0C4800F0E8F8B3
S31508002A9080462768BD4208D02846FFF7C7FFA368C7
S31508002AA0C8F80030C4F80880EBE73378013B337088
S31508002AB0F5E7E3685F682760E3E700BF6834000866
S31508002AC010B506480468211D00F07CF820B121687D
S31508002AD000F006F8012010BD0020FCE76834000865
S31508002AE008B5034608468A689278022A04D05A68C6
S31508002AF04968FDF799FD08BD5A684968FDF770FDF4
S31508002B00F9E708B508468B689B78022B03D0496815
S31508002B10FDF784FD08BD4968FDF770FDFAE710B5B5
S31508002B20036841681C680B681A461B680BB19C420F
S31508002B30FAD10A60FDF762FD10BD08B5FDF796FDEE
S31508002B4000F0A0F808BD000070B582B0144B1C68F0
S31508002B50E5682B6873B15E682268127C022A0CD07D
S31508002B6001A91048FFF770FF01460198FFF7C9FF52
S31508002B7002B070BD0A4A9668EEE7E3606868FFF738
S31508002B8055FF2660B36804229A70A3682B60A56077
S31508002B90FDF77AFD71683046FDF730FDE8E700BFBE
S31508002BA068340008743400084B689A68D0F80CC07A
S31508002BB0C1F800C0C16003605B7E5178994200D2BB
S31508002BC05370704738B502460B4600680968C468F2
S31508002BD094B16468B1B1A26892F801E04D68AD6835
S31508002BE095F801C0E6450FD2022595700A681A6065
S31508002BF0FFF7DAFF204638BD41B19468A26802257E
S31508002C009570F3E70C46F5E70024F3E70C46F1E781
S31508002C1070B44B689C68164622B193F818C00368CE
S31508002C20002507E094F801C0F9E76278624508D301
S31508002C301D461B682BB15A689468002EF5D0127E83
S31508002C40F4E725B1296000200B6070BC704701606D
S31508002C500120F9E708B54A600122FFF7D9FF08BD48
S31508002C6070B505460468E6683368E360FFF7AAFFAF
S31508002C70E36808B1304670BD13B15B682360F9E7B5
S31508002C80AB68FBE74FF0E023D3F8242422F4700264
S31508002C90C3F82424D3F8242442F4E002C3F82424F5
S31508002CA0D3F8042142F04002C3F80421704700001B
S31508002CB008B5024800F01AF808BD00BF2107000849
S31508002CC010B5EFF311842309013B072B02D98023A2
S31508002CD083F3118862B60448FFF7F2FE72B624F051
S31508002CE00F0484F3118810BD7434000808B58047B2
S31508002CF008BD0000F8B500BFF8BC08BC9E46704782
S31108002D00F8B500BFF8BC08BC9E4670473A
S31508002D0C80B584B000AFF860B9607A603B60834ADE
S31508002D1CFB68D362FB685A1EBB68D21A7F4B5A6291
S31508002D2C7E4B00221A617D4B0022DA607C48FFF745
S31508002D3C50F97C4B1B6819467B4A7B687B48FEF727
S31508002D4C6FFC7A4B1B681A68784B1B6842F00102B9
S31508002D5C1A60724B4FF48072DA60754B1B681A68EE
S31508002D6C734B1B6842F001021A60C046C046C04647
S31508002D7CC046C046C046C046C046C046C046C04609
S31508002D8C3B689847C046C046C046C046C046C04683
S31508002D9CC046C046C046C046C046C046C046C046E9
S31508002DACC046C046C046C046C046C046C046C046D9
S31508002DBCC046C046C046C046C046C046C046C046C9
S31508002DCCC046C046C046C046C046C046C046C046B9
S31508002DDCC046C046C046C046C046C046C046C046A9
S31508002DECC046C046C046C046C046C046C046C04699
S31508002DFCC046C046C046C046C046C046C046C04689
S31508002E0CC046C046C046C046C046C046C046C04678
S31508002E1CC046C046C046C046C046C046C046C04668
S31508002E2CC046C046C046C046C046C046C046C04658
S31508002E3CC046C046C046C046C046C046C046C04648
S31508002E4CC046C046C046C046C046C046C046C04638
S31508002E5CC046C046C046C046C046C046C046C04628
S31508002E6CC046C046C046C046C046C046C046C04618
S31508002E7CC046C046C046C046C046C046C046C04608
S31508002E8CC046C046C046C046C046C046C046C046F8
S31508002E9CC046C046C046C046C046C046C046C046E8
S31508002EACC046C046C046C046C046C046C046C046D8
S31508002EBCC046C046C046C046C046C046C046C046C8
S31508002ECCC046C046C046C046C046C046C046C046B8
S31508002EDCC046C046C046C046C046C046C046C046A8
S31508002EECC046C046C046C046C046C046C046C04698
S31508002EFCC046C046C046C046C046C046C046C04688
S31508002F0CC046C046C046C046C046C046C046C04677
S31508002F1CC046C046C046C0460CE000BF0004004090
S31508002F2C6005002000000020A0050020C004002039
S31508002F3C20050020C046C046C046C046C046C0460E
S31508002F4CC046C046C046C046C046C046C046C04637
S31508002F5CC046C046C046C046C046C046C046C04627
S31508002F6CC046C046C046C046C046C046C046C04617
S31508002F7CC046C046C046C046C046C046C046C04607
S3150800325C124B1B681A6A41F211131340002B0FD13B
S3150800326C0E4B1B681A6A40F244431340002B07D1D5
S3150800327C0A4B1B681A68094B1B6822F001021A6074
S3150800328C0748FEF7F1F90748FEF7B5FE064B1B682B
S3150800329C00221A6000BF1037BD4680BD20050020ED
S311080032ACC004002060050020000000207F
S315080032B8434C4B097C000000253364097C00000058
S315080032C80D0A000020253364097C0000434F4C0989
S315080032D87C0000000D0A0900547261636520257395
S315080032E820200D0A000000005465737420466169A1
S315080032F86C65642121212C206C696E653A31343756
S31508003308200D0A00636F6D705F74727565000000A2
S31508003318636F6D705F66616C7365000069665F65EB
S315080033286C73655F747275650000000069665F6591
S315080033386C73655F66616C7365000000616363653D
S3150800334873735F6E656172006163636573735F6645
S315080033586172000054696D652066756E6320636F37
S315080033686D702074203A202564200D0A000000009C
S3150800337854696D652066756E6320636F6D70206687
S31508003388203A202564200D0A0000000054696D655E
S315080033982066756E6320696620742020203A2025E9
S315080033A864200D0A0000000054696D652066756E74
S315080033B86320696620662020203A202564200D0AA5
S315080033C80000000054696D652066756E63206E6599
S315080033D861722020203A202564200D0A000000008A
S315080033E854696D652066756E6320666172202020B3
S315080033F8203A202564200D0A0000000030313233B7
S3150800340834353637383941424344454600000000CA
S315080034185461736B313A2025640D0A005465737438
S31508003428204661696C65642121212C206C696E65CA
S315080034383A313032200D0A005461736B323A20252E
S31508003448640D0A0054657374204661696C656421C5
S3150800345821212C206C696E653A313232200D0A001A
S315080034680400002081070008D0340008382200200C
S31508003478EC34000803000000402200200002000087
S315080034884824002000020000000002200004000072
S3150800349880340008240000204000002000000000B6
S315080034A8000000009D0C000801010100883400088E
S315080034B8280000204300002001000000000000004A
S315080034C84D0D000802020100903400082C00002067
S315080034D8460000200200000003000000052A000834
S315080034E80000010098340008B4340008D0340008F5
S315080034F850000020000610160006101600000000EE
S31508003508000000000102030406070809000000007D
S309080035180102030497
S30D0800351CF0CDFF7F010000005D
S30D08003524DD110008E5010008AD
S3090800352CC1010008C3
S3150800353024140040D03400080000000030000020A9
S315080035400000000000FF000000000000000000006E
S31508003550000000004024002048260020000000004B
S3150800356038000020000000000000000000000000F5
S315080035700001000002000100040000000000000035
S31508003580000000003C030020A40300200C040020D7
S31508003590000000000000000000000000000000001D
S315080035A0000000000000000000000000000000000D
S315080035B000000000000000000000000000000000FD
S315080035C000000000000000000000000000000000ED
S315080035D000000000000000000000000000000000DD
S315080035E000000000000000000000000000000000CD
S315080035F000000000000000000000000000000000BD
S3150800360000000000000000000000000000000000AC
S31508003610000000000000000000000000000000009C
S31508003620000000000000000001000000000000008B
S315080036300E33CDAB34126DE6ECDE05000B00000050
S31508003640000000000000000000000000000000006C
S31508003650000000000000000000000000000000005C
S31508003660000000000000000000000000000000004C
S31508003670000000000000000000000000000000003C
S315080039A000000000000000004C2600200100000076
S30D080039B0100000000024F400D9
S70508001141A0
